{
  "_format": "hh-sol-artifact-1",
  "contractName": "GapFillerContract",
  "sourceName": "contracts/GapFillerContract.sol",
  "abi": [
    {
      "inputs": [
        {
          "internalType": "address",
          "name": "_tournamentManager",
          "type": "address"
        }
      ],
      "stateMutability": "nonpayable",
      "type": "constructor"
    },
    {
      "anonymous": false,
      "inputs": [
        {
          "indexed": true,
          "internalType": "address",
          "name": "previousOwner",
          "type": "address"
        },
        {
          "indexed": true,
          "internalType": "address",
          "name": "newOwner",
          "type": "address"
        }
      ],
      "name": "OwnershipTransferred",
      "type": "event"
    },
    {
      "inputs": [],
      "name": "owner",
      "outputs": [
        {
          "internalType": "address",
          "name": "",
          "type": "address"
        }
      ],
      "stateMutability": "view",
      "type": "function"
    },
    {
      "inputs": [
        {
          "internalType": "uint256",
          "name": "amount",
          "type": "uint256"
        }
      ],
      "name": "provideFunds",
      "outputs": [],
      "stateMutability": "nonpayable",
      "type": "function"
    },
    {
      "inputs": [],
      "name": "renounceOwnership",
      "outputs": [],
      "stateMutability": "nonpayable",
      "type": "function"
    },
    {
      "inputs": [],
      "name": "tournamentManager",
      "outputs": [
        {
          "internalType": "address",
          "name": "",
          "type": "address"
        }
      ],
      "stateMutability": "view",
      "type": "function"
    },
    {
      "inputs": [
        {
          "internalType": "address",
          "name": "newOwner",
          "type": "address"
        }
      ],
      "name": "transferOwnership",
      "outputs": [],
      "stateMutability": "nonpayable",
      "type": "function"
    },
    {
      "inputs": [
        {
          "internalType": "uint256",
          "name": "amount",
          "type": "uint256"
        }
      ],
      "name": "withdraw",
      "outputs": [],
      "stateMutability": "nonpayable",
      "type": "function"
    },
    {
      "stateMutability": "payable",
      "type": "receive"
    }
  ],
  "bytecode": "0x608060405234801561001057600080fd5b50604051610d34380380610d34833981810160405281019061003291906101c4565b61004e61004361009560201b60201c565b61009d60201b60201c565b80600160006101000a81548173ffffffffffffffffffffffffffffffffffffffff021916908373ffffffffffffffffffffffffffffffffffffffff160217905550506101f1565b600033905090565b60008060009054906101000a900473ffffffffffffffffffffffffffffffffffffffff169050816000806101000a81548173ffffffffffffffffffffffffffffffffffffffff021916908373ffffffffffffffffffffffffffffffffffffffff1602179055508173ffffffffffffffffffffffffffffffffffffffff168173ffffffffffffffffffffffffffffffffffffffff167f8be0079c531659141344cd1fd0a4f28419497f9722a3daafe3b4186f6b6457e060405160405180910390a35050565b600080fd5b600073ffffffffffffffffffffffffffffffffffffffff82169050919050565b600061019182610166565b9050919050565b6101a181610186565b81146101ac57600080fd5b50565b6000815190506101be81610198565b92915050565b6000602082840312156101da576101d9610161565b5b60006101e8848285016101af565b91505092915050565b610b34806102006000396000f3fe6080604052600436106100595760003560e01c80632e1a7d4d14610065578063715018a61461008e5780638da5cb5b146100a55780639dcbd8f4146100d0578063e9a78824146100f9578063f2fde38b1461012457610060565b3661006057005b600080fd5b34801561007157600080fd5b5061008c6004803603810190610087919061065f565b61014d565b005b34801561009a57600080fd5b506100a361024f565b005b3480156100b157600080fd5b506100ba610263565b6040516100c791906106cd565b60405180910390f35b3480156100dc57600080fd5b506100f760048036038101906100f2919061065f565b61028c565b005b34801561010557600080fd5b5061010e610431565b60405161011b91906106cd565b60405180910390f35b34801561013057600080fd5b5061014b60048036038101906101469190610714565b610457565b005b6101556104da565b80471015610198576040517f08c379a000000000000000000000000000000000000000000000000000000000815260040161018f9061079e565b60405180910390fd5b60006101a2610263565b73ffffffffffffffffffffffffffffffffffffffff16826040516101c5906107ef565b60006040518083038185875af1925050503d8060008114610202576040519150601f19603f3d011682016040523d82523d6000602084013e610207565b606091505b505090508061024b576040517f08c379a000000000000000000000000000000000000000000000000000000000815260040161024290610850565b60405180910390fd5b5050565b6102576104da565b6102616000610558565b565b60008060009054906101000a900473ffffffffffffffffffffffffffffffffffffffff16905090565b600160009054906101000a900473ffffffffffffffffffffffffffffffffffffffff1673ffffffffffffffffffffffffffffffffffffffff163373ffffffffffffffffffffffffffffffffffffffff161461031c576040517f08c379a0000000000000000000000000000000000000000000000000000000008152600401610313906108bc565b60405180910390fd5b8047101561035f576040517f08c379a00000000000000000000000000000000000000000000000000000000081526004016103569061094e565b60405180910390fd5b6000600160009054906101000a900473ffffffffffffffffffffffffffffffffffffffff1673ffffffffffffffffffffffffffffffffffffffff16826040516103a7906107ef565b60006040518083038185875af1925050503d80600081146103e4576040519150601f19603f3d011682016040523d82523d6000602084013e6103e9565b606091505b505090508061042d576040517f08c379a0000000000000000000000000000000000000000000000000000000008152600401610424906109e0565b60405180910390fd5b5050565b600160009054906101000a900473ffffffffffffffffffffffffffffffffffffffff1681565b61045f6104da565b600073ffffffffffffffffffffffffffffffffffffffff168173ffffffffffffffffffffffffffffffffffffffff16036104ce576040517f08c379a00000000000000000000000000000000000000000000000000000000081526004016104c590610a72565b60405180910390fd5b6104d781610558565b50565b6104e261061c565b73ffffffffffffffffffffffffffffffffffffffff16610500610263565b73ffffffffffffffffffffffffffffffffffffffff1614610556576040517f08c379a000000000000000000000000000000000000000000000000000000000815260040161054d90610ade565b60405180910390fd5b565b60008060009054906101000a900473ffffffffffffffffffffffffffffffffffffffff169050816000806101000a81548173ffffffffffffffffffffffffffffffffffffffff021916908373ffffffffffffffffffffffffffffffffffffffff1602179055508173ffffffffffffffffffffffffffffffffffffffff168173ffffffffffffffffffffffffffffffffffffffff167f8be0079c531659141344cd1fd0a4f28419497f9722a3daafe3b4186f6b6457e060405160405180910390a35050565b600033905090565b600080fd5b6000819050919050565b61063c81610629565b811461064757600080fd5b50565b60008135905061065981610633565b92915050565b60006020828403121561067557610674610624565b5b60006106838482850161064a565b91505092915050565b600073ffffffffffffffffffffffffffffffffffffffff82169050919050565b60006106b78261068c565b9050919050565b6106c7816106ac565b82525050565b60006020820190506106e260008301846106be565b92915050565b6106f1816106ac565b81146106fc57600080fd5b50565b60008135905061070e816106e8565b92915050565b60006020828403121561072a57610729610624565b5b6000610738848285016106ff565b91505092915050565b600082825260208201905092915050565b7f496e73756666696369656e742066756e64730000000000000000000000000000600082015250565b6000610788601283610741565b915061079382610752565b602082019050919050565b600060208201905081810360008301526107b78161077b565b9050919050565b600081905092915050565b50565b60006107d96000836107be565b91506107e4826107c9565b600082019050919050565b60006107fa826107cc565b9150819050919050565b7f5769746864726177616c206661696c6564000000000000000000000000000000600082015250565b600061083a601183610741565b915061084582610804565b602082019050919050565b600060208201905081810360008301526108698161082d565b9050919050565b7f4f6e6c7920746f75726e616d656e74206d616e616765722063616e2063616c6c600082015250565b60006108a6602083610741565b91506108b182610870565b602082019050919050565b600060208201905081810360008301526108d581610899565b9050919050565b7f496e73756666696369656e742066756e647320696e2047617046696c6c65724360008201527f6f6e747261637400000000000000000000000000000000000000000000000000602082015250565b6000610938602783610741565b9150610943826108dc565b604082019050919050565b600060208201905081810360008301526109678161092b565b9050919050565b7f5472616e7366657220746f20546f75726e616d656e744d616e6167657220666160008201527f696c656400000000000000000000000000000000000000000000000000000000602082015250565b60006109ca602483610741565b91506109d58261096e565b604082019050919050565b600060208201905081810360008301526109f9816109bd565b9050919050565b7f4f776e61626c653a206e6577206f776e657220697320746865207a65726f206160008201527f6464726573730000000000000000000000000000000000000000000000000000602082015250565b6000610a5c602683610741565b9150610a6782610a00565b604082019050919050565b60006020820190508181036000830152610a8b81610a4f565b9050919050565b7f4f776e61626c653a2063616c6c6572206973206e6f7420746865206f776e6572600082015250565b6000610ac8602083610741565b9150610ad382610a92565b602082019050919050565b60006020820190508181036000830152610af781610abb565b905091905056fea2646970667358221220c639e910ea18d73bc7342bb5879ca9d8a6cd7789151bb3f73115d1529d18af5f64736f6c634300081b0033",
  "linkReferences": {},
  "deployedLinkReferences": {}
}