{
  "_format": "hh-sol-artifact-1",
  "contractName": "TicketNFT",
  "sourceName": "contracts/TicketNFT.sol",
  "abi": [
    {
      "inputs": [
        {
          "internalType": "address",
          "name": "_tournamentManager",
          "type": "address"
        },
        {
          "internalType": "uint256",
          "name": "_tournamentId",
          "type": "uint256"
        }
      ],
      "stateMutability": "nonpayable",
      "type": "constructor"
    },
    {
      "anonymous": false,
      "inputs": [
        {
          "indexed": true,
          "internalType": "address",
          "name": "owner",
          "type": "address"
        },
        {
          "indexed": true,
          "internalType": "address",
          "name": "approved",
          "type": "address"
        },
        {
          "indexed": true,
          "internalType": "uint256",
          "name": "tokenId",
          "type": "uint256"
        }
      ],
      "name": "Approval",
      "type": "event"
    },
    {
      "anonymous": false,
      "inputs": [
        {
          "indexed": true,
          "internalType": "address",
          "name": "owner",
          "type": "address"
        },
        {
          "indexed": true,
          "internalType": "address",
          "name": "operator",
          "type": "address"
        },
        {
          "indexed": false,
          "internalType": "bool",
          "name": "approved",
          "type": "bool"
        }
      ],
      "name": "ApprovalForAll",
      "type": "event"
    },
    {
      "anonymous": false,
      "inputs": [
        {
          "indexed": true,
          "internalType": "address",
          "name": "from",
          "type": "address"
        },
        {
          "indexed": true,
          "internalType": "address",
          "name": "to",
          "type": "address"
        },
        {
          "indexed": true,
          "internalType": "uint256",
          "name": "tokenId",
          "type": "uint256"
        }
      ],
      "name": "Transfer",
      "type": "event"
    },
    {
      "inputs": [
        {
          "internalType": "address",
          "name": "to",
          "type": "address"
        },
        {
          "internalType": "uint256",
          "name": "tokenId",
          "type": "uint256"
        }
      ],
      "name": "approve",
      "outputs": [],
      "stateMutability": "nonpayable",
      "type": "function"
    },
    {
      "inputs": [
        {
          "internalType": "address",
          "name": "owner",
          "type": "address"
        }
      ],
      "name": "balanceOf",
      "outputs": [
        {
          "internalType": "uint256",
          "name": "",
          "type": "uint256"
        }
      ],
      "stateMutability": "view",
      "type": "function"
    },
    {
      "inputs": [
        {
          "internalType": "uint256",
          "name": "tokenId",
          "type": "uint256"
        }
      ],
      "name": "getApproved",
      "outputs": [
        {
          "internalType": "address",
          "name": "",
          "type": "address"
        }
      ],
      "stateMutability": "view",
      "type": "function"
    },
    {
      "inputs": [
        {
          "internalType": "address",
          "name": "owner",
          "type": "address"
        },
        {
          "internalType": "address",
          "name": "operator",
          "type": "address"
        }
      ],
      "name": "isApprovedForAll",
      "outputs": [
        {
          "internalType": "bool",
          "name": "",
          "type": "bool"
        }
      ],
      "stateMutability": "view",
      "type": "function"
    },
    {
      "inputs": [
        {
          "internalType": "address",
          "name": "to",
          "type": "address"
        }
      ],
      "name": "mint",
      "outputs": [],
      "stateMutability": "nonpayable",
      "type": "function"
    },
    {
      "inputs": [],
      "name": "name",
      "outputs": [
        {
          "internalType": "string",
          "name": "",
          "type": "string"
        }
      ],
      "stateMutability": "view",
      "type": "function"
    },
    {
      "inputs": [
        {
          "internalType": "uint256",
          "name": "tokenId",
          "type": "uint256"
        }
      ],
      "name": "ownerOf",
      "outputs": [
        {
          "internalType": "address",
          "name": "",
          "type": "address"
        }
      ],
      "stateMutability": "view",
      "type": "function"
    },
    {
      "inputs": [
        {
          "internalType": "address",
          "name": "from",
          "type": "address"
        },
        {
          "internalType": "address",
          "name": "to",
          "type": "address"
        },
        {
          "internalType": "uint256",
          "name": "tokenId",
          "type": "uint256"
        }
      ],
      "name": "safeTransferFrom",
      "outputs": [],
      "stateMutability": "nonpayable",
      "type": "function"
    },
    {
      "inputs": [
        {
          "internalType": "address",
          "name": "from",
          "type": "address"
        },
        {
          "internalType": "address",
          "name": "to",
          "type": "address"
        },
        {
          "internalType": "uint256",
          "name": "tokenId",
          "type": "uint256"
        },
        {
          "internalType": "bytes",
          "name": "data",
          "type": "bytes"
        }
      ],
      "name": "safeTransferFrom",
      "outputs": [],
      "stateMutability": "nonpayable",
      "type": "function"
    },
    {
      "inputs": [
        {
          "internalType": "address",
          "name": "operator",
          "type": "address"
        },
        {
          "internalType": "bool",
          "name": "approved",
          "type": "bool"
        }
      ],
      "name": "setApprovalForAll",
      "outputs": [],
      "stateMutability": "nonpayable",
      "type": "function"
    },
    {
      "inputs": [
        {
          "internalType": "bytes4",
          "name": "interfaceId",
          "type": "bytes4"
        }
      ],
      "name": "supportsInterface",
      "outputs": [
        {
          "internalType": "bool",
          "name": "",
          "type": "bool"
        }
      ],
      "stateMutability": "view",
      "type": "function"
    },
    {
      "inputs": [],
      "name": "symbol",
      "outputs": [
        {
          "internalType": "string",
          "name": "",
          "type": "string"
        }
      ],
      "stateMutability": "view",
      "type": "function"
    },
    {
      "inputs": [],
      "name": "tokenIdCounter",
      "outputs": [
        {
          "internalType": "uint256",
          "name": "",
          "type": "uint256"
        }
      ],
      "stateMutability": "view",
      "type": "function"
    },
    {
      "inputs": [
        {
          "internalType": "uint256",
          "name": "tokenId",
          "type": "uint256"
        }
      ],
      "name": "tokenURI",
      "outputs": [
        {
          "internalType": "string",
          "name": "",
          "type": "string"
        }
      ],
      "stateMutability": "view",
      "type": "function"
    },
    {
      "inputs": [],
      "name": "tournamentId",
      "outputs": [
        {
          "internalType": "uint256",
          "name": "",
          "type": "uint256"
        }
      ],
      "stateMutability": "view",
      "type": "function"
    },
    {
      "inputs": [],
      "name": "tournamentManager",
      "outputs": [
        {
          "internalType": "address",
          "name": "",
          "type": "address"
        }
      ],
      "stateMutability": "view",
      "type": "function"
    },
    {
      "inputs": [
        {
          "internalType": "address",
          "name": "from",
          "type": "address"
        },
        {
          "internalType": "address",
          "name": "to",
          "type": "address"
        },
        {
          "internalType": "uint256",
          "name": "tokenId",
          "type": "uint256"
        }
      ],
      "name": "transferFrom",
      "outputs": [],
      "stateMutability": "nonpayable",
      "type": "function"
    }
  ],
  "bytecode": "0x608060405234801561001057600080fd5b50604051612c09380380612c09833981810160405281019061003291906101a8565b6040518060400160405280601181526020017f546f75726e616d656e74205469636b65740000000000000000000000000000008152506040518060400160405280600281526020017f545400000000000000000000000000000000000000000000000000000000000081525081600090816100ad919061042e565b5080600190816100bd919061042e565b50505081600660006101000a81548173ffffffffffffffffffffffffffffffffffffffff021916908373ffffffffffffffffffffffffffffffffffffffff160217905550806007819055505050610500565b600080fd5b600073ffffffffffffffffffffffffffffffffffffffff82169050919050565b600061013f82610114565b9050919050565b61014f81610134565b811461015a57600080fd5b50565b60008151905061016c81610146565b92915050565b6000819050919050565b61018581610172565b811461019057600080fd5b50565b6000815190506101a28161017c565b92915050565b600080604083850312156101bf576101be61010f565b5b60006101cd8582860161015d565b92505060206101de85828601610193565b9150509250929050565b600081519050919050565b7f4e487b7100000000000000000000000000000000000000000000000000000000600052604160045260246000fd5b7f4e487b7100000000000000000000000000000000000000000000000000000000600052602260045260246000fd5b6000600282049050600182168061026957607f821691505b60208210810361027c5761027b610222565b5b50919050565b60008190508160005260206000209050919050565b60006020601f8301049050919050565b600082821b905092915050565b6000600883026102e47fffffffffffffffffffffffffffffffffffffffffffffffffffffffffffffffff826102a7565b6102ee86836102a7565b95508019841693508086168417925050509392505050565b6000819050919050565b600061032b61032661032184610172565b610306565b610172565b9050919050565b6000819050919050565b61034583610310565b61035961035182610332565b8484546102b4565b825550505050565b600090565b61036e610361565b61037981848461033c565b505050565b5b8181101561039d57610392600082610366565b60018101905061037f565b5050565b601f8211156103e2576103b381610282565b6103bc84610297565b810160208510156103cb578190505b6103df6103d785610297565b83018261037e565b50505b505050565b600082821c905092915050565b6000610405600019846008026103e7565b1980831691505092915050565b600061041e83836103f4565b9150826002028217905092915050565b610437826101e8565b67ffffffffffffffff8111156104505761044f6101f3565b5b61045a8254610251565b6104658282856103a1565b600060209050601f8311600181146104985760008415610486578287015190505b6104908582610412565b8655506104f8565b601f1984166104a686610282565b60005b828110156104ce578489015182556001820191506020850194506020810190506104a9565b868310156104eb57848901516104e7601f8916826103f4565b8355505b6001600288020188555050505b505050505050565b6126fa8061050f6000396000f3fe608060405234801561001057600080fd5b506004361061010b5760003560e01c806370a08231116100a2578063b88d4fde11610071578063b88d4fde146102b6578063c87b56dd146102d2578063e985e9c514610302578063e9a7882414610332578063f809ab43146103505761010b565b806370a082311461022e57806395d89b411461025e57806398bdf6f51461027c578063a22cb4651461029a5761010b565b806323b872dd116100de57806323b872dd146101aa57806342842e0e146101c65780636352211e146101e25780636a627842146102125761010b565b806301ffc9a71461011057806306fdde0314610140578063081812fc1461015e578063095ea7b31461018e575b600080fd5b61012a60048036038101906101259190611927565b61036e565b604051610137919061196f565b60405180910390f35b610148610450565b6040516101559190611a1a565b60405180910390f35b61017860048036038101906101739190611a72565b6104e2565b6040516101859190611ae0565b60405180910390f35b6101a860048036038101906101a39190611b27565b610528565b005b6101c460048036038101906101bf9190611b67565b61063f565b005b6101e060048036038101906101db9190611b67565b61069f565b005b6101fc60048036038101906101f79190611a72565b6106bf565b6040516102099190611ae0565b60405180910390f35b61022c60048036038101906102279190611bba565b610745565b005b61024860048036038101906102439190611bba565b6107fe565b6040516102559190611bf6565b60405180910390f35b6102666108b5565b6040516102739190611a1a565b60405180910390f35b610284610947565b6040516102919190611bf6565b60405180910390f35b6102b460048036038101906102af9190611c3d565b61094d565b005b6102d060048036038101906102cb9190611db2565b610963565b005b6102ec60048036038101906102e79190611a72565b6109c5565b6040516102f99190611a1a565b60405180910390f35b61031c60048036038101906103179190611e35565b610a2d565b604051610329919061196f565b60405180910390f35b61033a610ac1565b6040516103479190611ae0565b60405180910390f35b610358610ae7565b6040516103659190611bf6565b60405180910390f35b60007f80ac58cd000000000000000000000000000000000000000000000000000000007bffffffffffffffffffffffffffffffffffffffffffffffffffffffff1916827bffffffffffffffffffffffffffffffffffffffffffffffffffffffff1916148061043957507f5b5e139f000000000000000000000000000000000000000000000000000000007bffffffffffffffffffffffffffffffffffffffffffffffffffffffff1916827bffffffffffffffffffffffffffffffffffffffffffffffffffffffff1916145b80610449575061044882610aed565b5b9050919050565b60606000805461045f90611ea4565b80601f016020809104026020016040519081016040528092919081815260200182805461048b90611ea4565b80156104d85780601f106104ad576101008083540402835291602001916104d8565b820191906000526020600020905b8154815290600101906020018083116104bb57829003601f168201915b5050505050905090565b60006104ed82610b57565b6004600083815260200190815260200160002060009054906101000a900473ffffffffffffffffffffffffffffffffffffffff169050919050565b6000610533826106bf565b90508073ffffffffffffffffffffffffffffffffffffffff168373ffffffffffffffffffffffffffffffffffffffff16036105a3576040517f08c379a000000000000000000000000000000000000000000000000000000000815260040161059a90611f47565b60405180910390fd5b8073ffffffffffffffffffffffffffffffffffffffff166105c2610ba2565b73ffffffffffffffffffffffffffffffffffffffff1614806105f157506105f0816105eb610ba2565b610a2d565b5b610630576040517f08c379a000000000000000000000000000000000000000000000000000000000815260040161062790611fd9565b60405180910390fd5b61063a8383610baa565b505050565b61065061064a610ba2565b82610c63565b61068f576040517f08c379a00000000000000000000000000000000000000000000000000000000081526004016106869061206b565b60405180910390fd5b61069a838383610cf8565b505050565b6106ba83838360405180602001604052806000815250610963565b505050565b6000806106cb83610ff1565b9050600073ffffffffffffffffffffffffffffffffffffffff168173ffffffffffffffffffffffffffffffffffffffff160361073c576040517f08c379a0000000000000000000000000000000000000000000000000000000008152600401610733906120d7565b60405180910390fd5b80915050919050565b600660009054906101000a900473ffffffffffffffffffffffffffffffffffffffff1673ffffffffffffffffffffffffffffffffffffffff163373ffffffffffffffffffffffffffffffffffffffff16146107d5576040517f08c379a00000000000000000000000000000000000000000000000000000000081526004016107cc90612143565b60405180910390fd5b6001600860008282546107e89190612192565b925050819055506107fb8160085461102e565b50565b60008073ffffffffffffffffffffffffffffffffffffffff168273ffffffffffffffffffffffffffffffffffffffff160361086e576040517f08c379a000000000000000000000000000000000000000000000000000000000815260040161086590612238565b60405180910390fd5b600360008373ffffffffffffffffffffffffffffffffffffffff1673ffffffffffffffffffffffffffffffffffffffff168152602001908152602001600020549050919050565b6060600180546108c490611ea4565b80601f01602080910402602001604051908101604052809291908181526020018280546108f090611ea4565b801561093d5780601f106109125761010080835404028352916020019161093d565b820191906000526020600020905b81548152906001019060200180831161092057829003601f168201915b5050505050905090565b60085481565b61095f610958610ba2565b838361104c565b5050565b61097461096e610ba2565b83610c63565b6109b3576040517f08c379a00000000000000000000000000000000000000000000000000000000081526004016109aa9061206b565b60405180910390fd5b6109bf848484846111b8565b50505050565b60606109d082610b57565b60006109da611214565b905060008151116109fa5760405180602001604052806000815250610a25565b80610a048461122b565b604051602001610a15929190612294565b6040516020818303038152906040525b915050919050565b6000600560008473ffffffffffffffffffffffffffffffffffffffff1673ffffffffffffffffffffffffffffffffffffffff16815260200190815260200160002060008373ffffffffffffffffffffffffffffffffffffffff1673ffffffffffffffffffffffffffffffffffffffff16815260200190815260200160002060009054906101000a900460ff16905092915050565b600660009054906101000a900473ffffffffffffffffffffffffffffffffffffffff1681565b60075481565b60007f01ffc9a7000000000000000000000000000000000000000000000000000000007bffffffffffffffffffffffffffffffffffffffffffffffffffffffff1916827bffffffffffffffffffffffffffffffffffffffffffffffffffffffff1916149050919050565b610b60816112f9565b610b9f576040517f08c379a0000000000000000000000000000000000000000000000000000000008152600401610b96906120d7565b60405180910390fd5b50565b600033905090565b816004600083815260200190815260200160002060006101000a81548173ffffffffffffffffffffffffffffffffffffffff021916908373ffffffffffffffffffffffffffffffffffffffff160217905550808273ffffffffffffffffffffffffffffffffffffffff16610c1d836106bf565b73ffffffffffffffffffffffffffffffffffffffff167f8c5be1e5ebec7d5bd14f71427d1e84f3dd0314c0f7b2291e5b200ac8c7c3b92560405160405180910390a45050565b600080610c6f836106bf565b90508073ffffffffffffffffffffffffffffffffffffffff168473ffffffffffffffffffffffffffffffffffffffff161480610cb15750610cb08185610a2d565b5b80610cef57508373ffffffffffffffffffffffffffffffffffffffff16610cd7846104e2565b73ffffffffffffffffffffffffffffffffffffffff16145b91505092915050565b8273ffffffffffffffffffffffffffffffffffffffff16610d18826106bf565b73ffffffffffffffffffffffffffffffffffffffff1614610d6e576040517f08c379a0000000000000000000000000000000000000000000000000000000008152600401610d659061232a565b60405180910390fd5b600073ffffffffffffffffffffffffffffffffffffffff168273ffffffffffffffffffffffffffffffffffffffff1603610ddd576040517f08c379a0000000000000000000000000000000000000000000000000000000008152600401610dd4906123bc565b60405180910390fd5b610dea838383600161133a565b8273ffffffffffffffffffffffffffffffffffffffff16610e0a826106bf565b73ffffffffffffffffffffffffffffffffffffffff1614610e60576040517f08c379a0000000000000000000000000000000000000000000000000000000008152600401610e579061232a565b60405180910390fd5b6004600082815260200190815260200160002060006101000a81549073ffffffffffffffffffffffffffffffffffffffff02191690556001600360008573ffffffffffffffffffffffffffffffffffffffff1673ffffffffffffffffffffffffffffffffffffffff168152602001908152602001600020600082825403925050819055506001600360008473ffffffffffffffffffffffffffffffffffffffff1673ffffffffffffffffffffffffffffffffffffffff16815260200190815260200160002060008282540192505081905550816002600083815260200190815260200160002060006101000a81548173ffffffffffffffffffffffffffffffffffffffff021916908373ffffffffffffffffffffffffffffffffffffffff160217905550808273ffffffffffffffffffffffffffffffffffffffff168473ffffffffffffffffffffffffffffffffffffffff167fddf252ad1be2c89b69c2b068fc378daa952ba7f163c4a11628f55a4df523b3ef60405160405180910390a4610fec8383836001611340565b505050565b60006002600083815260200190815260200160002060009054906101000a900473ffffffffffffffffffffffffffffffffffffffff169050919050565b611048828260405180602001604052806000815250611346565b5050565b8173ffffffffffffffffffffffffffffffffffffffff168373ffffffffffffffffffffffffffffffffffffffff16036110ba576040517f08c379a00000000000000000000000000000000000000000000000000000000081526004016110b190612428565b60405180910390fd5b80600560008573ffffffffffffffffffffffffffffffffffffffff1673ffffffffffffffffffffffffffffffffffffffff16815260200190815260200160002060008473ffffffffffffffffffffffffffffffffffffffff1673ffffffffffffffffffffffffffffffffffffffff16815260200190815260200160002060006101000a81548160ff0219169083151502179055508173ffffffffffffffffffffffffffffffffffffffff168373ffffffffffffffffffffffffffffffffffffffff167f17307eab39ab6107e8899845ad3d59bd9653f200f220920489ca2b5937696c31836040516111ab919061196f565b60405180910390a3505050565b6111c3848484610cf8565b6111cf848484846113a1565b61120e576040517f08c379a0000000000000000000000000000000000000000000000000000000008152600401611205906124ba565b60405180910390fd5b50505050565b606060405180602001604052806000815250905090565b60606000600161123a84611528565b01905060008167ffffffffffffffff81111561125957611258611c87565b5b6040519080825280601f01601f19166020018201604052801561128b5781602001600182028036833780820191505090505b509050600082602001820190505b6001156112ee578080600190039150507f3031323334353637383961626364656600000000000000000000000000000000600a86061a8153600a85816112e2576112e16124da565b5b04945060008503611299575b819350505050919050565b60008073ffffffffffffffffffffffffffffffffffffffff1661131b83610ff1565b73ffffffffffffffffffffffffffffffffffffffff1614159050919050565b50505050565b50505050565b611350838361167b565b61135d60008484846113a1565b61139c576040517f08c379a0000000000000000000000000000000000000000000000000000000008152600401611393906124ba565b60405180910390fd5b505050565b60006113c28473ffffffffffffffffffffffffffffffffffffffff16611898565b1561151b578373ffffffffffffffffffffffffffffffffffffffff1663150b7a026113eb610ba2565b8786866040518563ffffffff1660e01b815260040161140d949392919061255e565b6020604051808303816000875af192505050801561144957506040513d601f19601f8201168201806040525081019061144691906125bf565b60015b6114cb573d8060008114611479576040519150601f19603f3d011682016040523d82523d6000602084013e61147e565b606091505b5060008151036114c3576040517f08c379a00000000000000000000000000000000000000000000000000000000081526004016114ba906124ba565b60405180910390fd5b805181602001fd5b63150b7a0260e01b7bffffffffffffffffffffffffffffffffffffffffffffffffffffffff1916817bffffffffffffffffffffffffffffffffffffffffffffffffffffffff191614915050611520565b600190505b949350505050565b600080600090507a184f03e93ff9f4daa797ed6e38ed64bf6a1f0100000000000000008310611586577a184f03e93ff9f4daa797ed6e38ed64bf6a1f010000000000000000838161157c5761157b6124da565b5b0492506040810190505b6d04ee2d6d415b85acef810000000083106115c3576d04ee2d6d415b85acef810000000083816115b9576115b86124da565b5b0492506020810190505b662386f26fc1000083106115f257662386f26fc1000083816115e8576115e76124da565b5b0492506010810190505b6305f5e100831061161b576305f5e1008381611611576116106124da565b5b0492506008810190505b6127108310611640576127108381611636576116356124da565b5b0492506004810190505b606483106116635760648381611659576116586124da565b5b0492506002810190505b600a8310611672576001810190505b80915050919050565b600073ffffffffffffffffffffffffffffffffffffffff168273ffffffffffffffffffffffffffffffffffffffff16036116ea576040517f08c379a00000000000000000000000000000000000000000000000000000000081526004016116e190612638565b60405180910390fd5b6116f3816112f9565b15611733576040517f08c379a000000000000000000000000000000000000000000000000000000000815260040161172a906126a4565b60405180910390fd5b61174160008383600161133a565b61174a816112f9565b1561178a576040517f08c379a0000000000000000000000000000000000000000000000000000000008152600401611781906126a4565b60405180910390fd5b6001600360008473ffffffffffffffffffffffffffffffffffffffff1673ffffffffffffffffffffffffffffffffffffffff16815260200190815260200160002060008282540192505081905550816002600083815260200190815260200160002060006101000a81548173ffffffffffffffffffffffffffffffffffffffff021916908373ffffffffffffffffffffffffffffffffffffffff160217905550808273ffffffffffffffffffffffffffffffffffffffff16600073ffffffffffffffffffffffffffffffffffffffff167fddf252ad1be2c89b69c2b068fc378daa952ba7f163c4a11628f55a4df523b3ef60405160405180910390a4611894600083836001611340565b5050565b6000808273ffffffffffffffffffffffffffffffffffffffff163b119050919050565b6000604051905090565b600080fd5b600080fd5b60007fffffffff0000000000000000000000000000000000000000000000000000000082169050919050565b611904816118cf565b811461190f57600080fd5b50565b600081359050611921816118fb565b92915050565b60006020828403121561193d5761193c6118c5565b5b600061194b84828501611912565b91505092915050565b60008115159050919050565b61196981611954565b82525050565b60006020820190506119846000830184611960565b92915050565b600081519050919050565b600082825260208201905092915050565b60005b838110156119c45780820151818401526020810190506119a9565b60008484015250505050565b6000601f19601f8301169050919050565b60006119ec8261198a565b6119f68185611995565b9350611a068185602086016119a6565b611a0f816119d0565b840191505092915050565b60006020820190508181036000830152611a3481846119e1565b905092915050565b6000819050919050565b611a4f81611a3c565b8114611a5a57600080fd5b50565b600081359050611a6c81611a46565b92915050565b600060208284031215611a8857611a876118c5565b5b6000611a9684828501611a5d565b91505092915050565b600073ffffffffffffffffffffffffffffffffffffffff82169050919050565b6000611aca82611a9f565b9050919050565b611ada81611abf565b82525050565b6000602082019050611af56000830184611ad1565b92915050565b611b0481611abf565b8114611b0f57600080fd5b50565b600081359050611b2181611afb565b92915050565b60008060408385031215611b3e57611b3d6118c5565b5b6000611b4c85828601611b12565b9250506020611b5d85828601611a5d565b9150509250929050565b600080600060608486031215611b8057611b7f6118c5565b5b6000611b8e86828701611b12565b9350506020611b9f86828701611b12565b9250506040611bb086828701611a5d565b9150509250925092565b600060208284031215611bd057611bcf6118c5565b5b6000611bde84828501611b12565b91505092915050565b611bf081611a3c565b82525050565b6000602082019050611c0b6000830184611be7565b92915050565b611c1a81611954565b8114611c2557600080fd5b50565b600081359050611c3781611c11565b92915050565b60008060408385031215611c5457611c536118c5565b5b6000611c6285828601611b12565b9250506020611c7385828601611c28565b9150509250929050565b600080fd5b600080fd5b7f4e487b7100000000000000000000000000000000000000000000000000000000600052604160045260246000fd5b611cbf826119d0565b810181811067ffffffffffffffff82111715611cde57611cdd611c87565b5b80604052505050565b6000611cf16118bb565b9050611cfd8282611cb6565b919050565b600067ffffffffffffffff821115611d1d57611d1c611c87565b5b611d26826119d0565b9050602081019050919050565b82818337600083830152505050565b6000611d55611d5084611d02565b611ce7565b905082815260208101848484011115611d7157611d70611c82565b5b611d7c848285611d33565b509392505050565b600082601f830112611d9957611d98611c7d565b5b8135611da9848260208601611d42565b91505092915050565b60008060008060808587031215611dcc57611dcb6118c5565b5b6000611dda87828801611b12565b9450506020611deb87828801611b12565b9350506040611dfc87828801611a5d565b925050606085013567ffffffffffffffff811115611e1d57611e1c6118ca565b5b611e2987828801611d84565b91505092959194509250565b60008060408385031215611e4c57611e4b6118c5565b5b6000611e5a85828601611b12565b9250506020611e6b85828601611b12565b9150509250929050565b7f4e487b7100000000000000000000000000000000000000000000000000000000600052602260045260246000fd5b60006002820490506001821680611ebc57607f821691505b602082108103611ecf57611ece611e75565b5b50919050565b7f4552433732313a20617070726f76616c20746f2063757272656e74206f776e6560008201527f7200000000000000000000000000000000000000000000000000000000000000602082015250565b6000611f31602183611995565b9150611f3c82611ed5565b604082019050919050565b60006020820190508181036000830152611f6081611f24565b9050919050565b7f4552433732313a20617070726f76652063616c6c6572206973206e6f7420746f60008201527f6b656e206f776e6572206f7220617070726f76656420666f7220616c6c000000602082015250565b6000611fc3603d83611995565b9150611fce82611f67565b604082019050919050565b60006020820190508181036000830152611ff281611fb6565b9050919050565b7f4552433732313a2063616c6c6572206973206e6f7420746f6b656e206f776e6560008201527f72206f7220617070726f76656400000000000000000000000000000000000000602082015250565b6000612055602d83611995565b915061206082611ff9565b604082019050919050565b6000602082019050818103600083015261208481612048565b9050919050565b7f4552433732313a20696e76616c696420746f6b656e2049440000000000000000600082015250565b60006120c1601883611995565b91506120cc8261208b565b602082019050919050565b600060208201905081810360008301526120f0816120b4565b9050919050565b7f4f6e6c7920746f75726e616d656e74206d616e616765722063616e206d696e74600082015250565b600061212d602083611995565b9150612138826120f7565b602082019050919050565b6000602082019050818103600083015261215c81612120565b9050919050565b7f4e487b7100000000000000000000000000000000000000000000000000000000600052601160045260246000fd5b600061219d82611a3c565b91506121a883611a3c565b92508282019050808211156121c0576121bf612163565b5b92915050565b7f4552433732313a2061646472657373207a65726f206973206e6f74206120766160008201527f6c6964206f776e65720000000000000000000000000000000000000000000000602082015250565b6000612222602983611995565b915061222d826121c6565b604082019050919050565b6000602082019050818103600083015261225181612215565b9050919050565b600081905092915050565b600061226e8261198a565b6122788185612258565b93506122888185602086016119a6565b80840191505092915050565b60006122a08285612263565b91506122ac8284612263565b91508190509392505050565b7f4552433732313a207472616e736665722066726f6d20696e636f72726563742060008201527f6f776e6572000000000000000000000000000000000000000000000000000000602082015250565b6000612314602583611995565b915061231f826122b8565b604082019050919050565b6000602082019050818103600083015261234381612307565b9050919050565b7f4552433732313a207472616e7366657220746f20746865207a65726f2061646460008201527f7265737300000000000000000000000000000000000000000000000000000000602082015250565b60006123a6602483611995565b91506123b18261234a565b604082019050919050565b600060208201905081810360008301526123d581612399565b9050919050565b7f4552433732313a20617070726f766520746f2063616c6c657200000000000000600082015250565b6000612412601983611995565b915061241d826123dc565b602082019050919050565b6000602082019050818103600083015261244181612405565b9050919050565b7f4552433732313a207472616e7366657220746f206e6f6e20455243373231526560008201527f63656976657220696d706c656d656e7465720000000000000000000000000000602082015250565b60006124a4603283611995565b91506124af82612448565b604082019050919050565b600060208201905081810360008301526124d381612497565b9050919050565b7f4e487b7100000000000000000000000000000000000000000000000000000000600052601260045260246000fd5b600081519050919050565b600082825260208201905092915050565b600061253082612509565b61253a8185612514565b935061254a8185602086016119a6565b612553816119d0565b840191505092915050565b60006080820190506125736000830187611ad1565b6125806020830186611ad1565b61258d6040830185611be7565b818103606083015261259f8184612525565b905095945050505050565b6000815190506125b9816118fb565b92915050565b6000602082840312156125d5576125d46118c5565b5b60006125e3848285016125aa565b91505092915050565b7f4552433732313a206d696e7420746f20746865207a65726f2061646472657373600082015250565b6000612622602083611995565b915061262d826125ec565b602082019050919050565b6000602082019050818103600083015261265181612615565b9050919050565b7f4552433732313a20746f6b656e20616c7265616479206d696e74656400000000600082015250565b600061268e601c83611995565b915061269982612658565b602082019050919050565b600060208201905081810360008301526126bd81612681565b905091905056fea2646970667358221220f9c5e17f2bf3a2b9494d66479127a2cb0c7893ef7fe179c7f546a1664215221a64736f6c634300081b0033",
  "linkReferences": {},
  "deployedLinkReferences": {}
}