{
  "_format": "hh-sol-artifact-1",
  "contractName": "TournamentManager",
  "sourceName": "contracts/TournamentManager.sol",
  "abi": [
    {
      "inputs": [],
      "stateMutability": "nonpayable",
      "type": "constructor"
    },
    {
      "anonymous": false,
      "inputs": [
        {
          "indexed": true,
          "internalType": "uint256",
          "name": "tournamentId",
          "type": "uint256"
        },
        {
          "indexed": false,
          "internalType": "address[]",
          "name": "winners",
          "type": "address[]"
        },
        {
          "indexed": false,
          "internalType": "uint256[]",
          "name": "amounts",
          "type": "uint256[]"
        }
      ],
      "name": "RewardsDistributed",
      "type": "event"
    },
    {
      "anonymous": false,
      "inputs": [
        {
          "indexed": true,
          "internalType": "bytes32",
          "name": "role",
          "type": "bytes32"
        },
        {
          "indexed": true,
          "internalType": "bytes32",
          "name": "previousAdminRole",
          "type": "bytes32"
        },
        {
          "indexed": true,
          "internalType": "bytes32",
          "name": "newAdminRole",
          "type": "bytes32"
        }
      ],
      "name": "RoleAdminChanged",
      "type": "event"
    },
    {
      "anonymous": false,
      "inputs": [
        {
          "indexed": true,
          "internalType": "bytes32",
          "name": "role",
          "type": "bytes32"
        },
        {
          "indexed": true,
          "internalType": "address",
          "name": "account",
          "type": "address"
        },
        {
          "indexed": true,
          "internalType": "address",
          "name": "sender",
          "type": "address"
        }
      ],
      "name": "RoleGranted",
      "type": "event"
    },
    {
      "anonymous": false,
      "inputs": [
        {
          "indexed": true,
          "internalType": "bytes32",
          "name": "role",
          "type": "bytes32"
        },
        {
          "indexed": true,
          "internalType": "address",
          "name": "account",
          "type": "address"
        },
        {
          "indexed": true,
          "internalType": "address",
          "name": "sender",
          "type": "address"
        }
      ],
      "name": "RoleRevoked",
      "type": "event"
    },
    {
      "anonymous": false,
      "inputs": [
        {
          "indexed": true,
          "internalType": "uint256",
          "name": "tournamentId",
          "type": "uint256"
        },
        {
          "indexed": false,
          "internalType": "address",
          "name": "buyer",
          "type": "address"
        },
        {
          "indexed": false,
          "internalType": "uint256",
          "name": "amount",
          "type": "uint256"
        }
      ],
      "name": "TicketsBought",
      "type": "event"
    },
    {
      "anonymous": false,
      "inputs": [
        {
          "indexed": true,
          "internalType": "uint256",
          "name": "tournamentId",
          "type": "uint256"
        }
      ],
      "name": "TournamentEnded",
      "type": "event"
    },
    {
      "anonymous": false,
      "inputs": [
        {
          "indexed": true,
          "internalType": "uint256",
          "name": "tournamentId",
          "type": "uint256"
        },
        {
          "indexed": false,
          "internalType": "address",
          "name": "ticketNFTAddress",
          "type": "address"
        },
        {
          "indexed": false,
          "internalType": "uint256",
          "name": "ticketPrice",
          "type": "uint256"
        },
        {
          "indexed": false,
          "internalType": "uint256",
          "name": "minTickets",
          "type": "uint256"
        },
        {
          "indexed": false,
          "internalType": "uint256",
          "name": "endDate",
          "type": "uint256"
        }
      ],
      "name": "TournamentStarted",
      "type": "event"
    },
    {
      "inputs": [],
      "name": "CONTRACT_ROLE",
      "outputs": [
        {
          "internalType": "bytes32",
          "name": "",
          "type": "bytes32"
        }
      ],
      "stateMutability": "view",
      "type": "function"
    },
    {
      "inputs": [],
      "name": "DEFAULT_ADMIN_ROLE",
      "outputs": [
        {
          "internalType": "bytes32",
          "name": "",
          "type": "bytes32"
        }
      ],
      "stateMutability": "view",
      "type": "function"
    },
    {
      "inputs": [],
      "name": "REWARD_DISTRIBUTOR_ROLE",
      "outputs": [
        {
          "internalType": "bytes32",
          "name": "",
          "type": "bytes32"
        }
      ],
      "stateMutability": "view",
      "type": "function"
    },
    {
      "inputs": [],
      "name": "TOURNAMENT_STARTER_ROLE",
      "outputs": [
        {
          "internalType": "bytes32",
          "name": "",
          "type": "bytes32"
        }
      ],
      "stateMutability": "view",
      "type": "function"
    },
    {
      "inputs": [
        {
          "internalType": "uint256",
          "name": "tournamentId",
          "type": "uint256"
        },
        {
          "internalType": "uint256",
          "name": "amount",
          "type": "uint256"
        }
      ],
      "name": "buyTickets",
      "outputs": [],
      "stateMutability": "payable",
      "type": "function"
    },
    {
      "inputs": [],
      "name": "daoAddress",
      "outputs": [
        {
          "internalType": "address",
          "name": "",
          "type": "address"
        }
      ],
      "stateMutability": "view",
      "type": "function"
    },
    {
      "inputs": [],
      "name": "daoPercent",
      "outputs": [
        {
          "internalType": "uint256",
          "name": "",
          "type": "uint256"
        }
      ],
      "stateMutability": "view",
      "type": "function"
    },
    {
      "inputs": [
        {
          "internalType": "uint256",
          "name": "tournamentId",
          "type": "uint256"
        },
        {
          "internalType": "address[]",
          "name": "winners",
          "type": "address[]"
        },
        {
          "internalType": "uint256[]",
          "name": "amounts",
          "type": "uint256[]"
        }
      ],
      "name": "distributeRewards",
      "outputs": [],
      "stateMutability": "nonpayable",
      "type": "function"
    },
    {
      "inputs": [
        {
          "internalType": "uint256",
          "name": "tournamentId",
          "type": "uint256"
        }
      ],
      "name": "endTournament",
      "outputs": [],
      "stateMutability": "nonpayable",
      "type": "function"
    },
    {
      "inputs": [],
      "name": "gapFillerContractAddress",
      "outputs": [
        {
          "internalType": "address",
          "name": "",
          "type": "address"
        }
      ],
      "stateMutability": "view",
      "type": "function"
    },
    {
      "inputs": [
        {
          "internalType": "bytes32",
          "name": "role",
          "type": "bytes32"
        }
      ],
      "name": "getRoleAdmin",
      "outputs": [
        {
          "internalType": "bytes32",
          "name": "",
          "type": "bytes32"
        }
      ],
      "stateMutability": "view",
      "type": "function"
    },
    {
      "inputs": [
        {
          "internalType": "bytes32",
          "name": "role",
          "type": "bytes32"
        },
        {
          "internalType": "address",
          "name": "account",
          "type": "address"
        }
      ],
      "name": "grantRole",
      "outputs": [],
      "stateMutability": "nonpayable",
      "type": "function"
    },
    {
      "inputs": [
        {
          "internalType": "bytes32",
          "name": "role",
          "type": "bytes32"
        },
        {
          "internalType": "address",
          "name": "account",
          "type": "address"
        }
      ],
      "name": "hasRole",
      "outputs": [
        {
          "internalType": "bool",
          "name": "",
          "type": "bool"
        }
      ],
      "stateMutability": "view",
      "type": "function"
    },
    {
      "inputs": [],
      "name": "jackpotAddress",
      "outputs": [
        {
          "internalType": "address",
          "name": "",
          "type": "address"
        }
      ],
      "stateMutability": "view",
      "type": "function"
    },
    {
      "inputs": [],
      "name": "jackpotPercent",
      "outputs": [
        {
          "internalType": "uint256",
          "name": "",
          "type": "uint256"
        }
      ],
      "stateMutability": "view",
      "type": "function"
    },
    {
      "inputs": [
        {
          "internalType": "bytes32",
          "name": "role",
          "type": "bytes32"
        },
        {
          "internalType": "address",
          "name": "account",
          "type": "address"
        }
      ],
      "name": "renounceRole",
      "outputs": [],
      "stateMutability": "nonpayable",
      "type": "function"
    },
    {
      "inputs": [
        {
          "internalType": "bytes32",
          "name": "role",
          "type": "bytes32"
        },
        {
          "internalType": "address",
          "name": "account",
          "type": "address"
        }
      ],
      "name": "revokeRole",
      "outputs": [],
      "stateMutability": "nonpayable",
      "type": "function"
    },
    {
      "inputs": [
        {
          "internalType": "address",
          "name": "_jackpotAddress",
          "type": "address"
        },
        {
          "internalType": "address",
          "name": "_daoAddress",
          "type": "address"
        },
        {
          "internalType": "address",
          "name": "_stackingAddress",
          "type": "address"
        }
      ],
      "name": "setAddresses",
      "outputs": [],
      "stateMutability": "nonpayable",
      "type": "function"
    },
    {
      "inputs": [
        {
          "internalType": "address",
          "name": "_gapFillerContractAddress",
          "type": "address"
        }
      ],
      "name": "setGapFillerContractAddress",
      "outputs": [],
      "stateMutability": "nonpayable",
      "type": "function"
    },
    {
      "inputs": [
        {
          "internalType": "uint256",
          "name": "_jackpotPercent",
          "type": "uint256"
        },
        {
          "internalType": "uint256",
          "name": "_daoPercent",
          "type": "uint256"
        },
        {
          "internalType": "uint256",
          "name": "_stackingPercent",
          "type": "uint256"
        }
      ],
      "name": "setPercents",
      "outputs": [],
      "stateMutability": "nonpayable",
      "type": "function"
    },
    {
      "inputs": [],
      "name": "stackingAddress",
      "outputs": [
        {
          "internalType": "address",
          "name": "",
          "type": "address"
        }
      ],
      "stateMutability": "view",
      "type": "function"
    },
    {
      "inputs": [],
      "name": "stackingPercent",
      "outputs": [
        {
          "internalType": "uint256",
          "name": "",
          "type": "uint256"
        }
      ],
      "stateMutability": "view",
      "type": "function"
    },
    {
      "inputs": [
        {
          "internalType": "uint256",
          "name": "_ticketPrice",
          "type": "uint256"
        },
        {
          "internalType": "uint256",
          "name": "_minTickets",
          "type": "uint256"
        },
        {
          "internalType": "uint256",
          "name": "_endDate",
          "type": "uint256"
        }
      ],
      "name": "startTournament",
      "outputs": [],
      "stateMutability": "nonpayable",
      "type": "function"
    },
    {
      "inputs": [
        {
          "internalType": "bytes4",
          "name": "interfaceId",
          "type": "bytes4"
        }
      ],
      "name": "supportsInterface",
      "outputs": [
        {
          "internalType": "bool",
          "name": "",
          "type": "bool"
        }
      ],
      "stateMutability": "view",
      "type": "function"
    },
    {
      "inputs": [],
      "name": "tournamentCounter",
      "outputs": [
        {
          "internalType": "uint256",
          "name": "",
          "type": "uint256"
        }
      ],
      "stateMutability": "view",
      "type": "function"
    },
    {
      "inputs": [
        {
          "internalType": "uint256",
          "name": "",
          "type": "uint256"
        }
      ],
      "name": "tournaments",
      "outputs": [
        {
          "internalType": "uint256",
          "name": "id",
          "type": "uint256"
        },
        {
          "internalType": "address",
          "name": "ticketNFTAddress",
          "type": "address"
        },
        {
          "internalType": "uint256",
          "name": "ticketPrice",
          "type": "uint256"
        },
        {
          "internalType": "uint256",
          "name": "minTickets",
          "type": "uint256"
        },
        {
          "internalType": "uint256",
          "name": "endDate",
          "type": "uint256"
        },
        {
          "internalType": "uint256",
          "name": "ticketsSold",
          "type": "uint256"
        },
        {
          "internalType": "uint256",
          "name": "totalCollected",
          "type": "uint256"
        },
        {
          "internalType": "bool",
          "name": "ended",
          "type": "bool"
        }
      ],
      "stateMutability": "view",
      "type": "function"
    },
    {
      "inputs": [
        {
          "internalType": "uint256",
          "name": "amount",
          "type": "uint256"
        }
      ],
      "name": "withdraw",
      "outputs": [],
      "stateMutability": "nonpayable",
      "type": "function"
    },
    {
      "stateMutability": "payable",
      "type": "receive"
    }
  ],
  "bytecode": "0x608060405234801561001057600080fd5b506100246000801b3361004160201b60201c565b6032600681905550609660078190555060646008819055506101b3565b610051828261005560201b60201c565b5050565b610065828261014160201b60201c565b61013d57600160008084815260200190815260200160002060000160008373ffffffffffffffffffffffffffffffffffffffff1673ffffffffffffffffffffffffffffffffffffffff16815260200190815260200160002060006101000a81548160ff0219169083151502179055506100e26101ab60201b60201c565b73ffffffffffffffffffffffffffffffffffffffff168173ffffffffffffffffffffffffffffffffffffffff16837f2f8788117e7eff1d82e926ec794901d17c78024a50270940304540a733656f0d60405160405180910390a45b5050565b600080600084815260200190815260200160002060000160008373ffffffffffffffffffffffffffffffffffffffff1673ffffffffffffffffffffffffffffffffffffffff16815260200190815260200160002060009054906101000a900460ff16905092915050565b600033905090565b61584d806101c26000396000f3fe6080604052600436106101a05760003560e01c806373ed5c1c116100ec578063aa3b47c01161008a578063cebb7b5a11610064578063cebb7b5a146105bd578063d547741f146105e6578063d5b442221461060f578063efe8a45e14610638576101a7565b8063aa3b47c01461053e578063bf4637e514610567578063c6f0bb4a14610592576101a7565b80638627df46116100c65780638627df461461048f5780638b5e0205146104ab57806391d14854146104d6578063a217fddf14610513576101a7565b806373ed5c1c146103f55780637503e1b7146104205780638033223314610464576101a7565b80632e1a7d4d11610159578063363bf96411610133578063363bf9641461034d57806336568abe146103765780636bc0b3ba1461039f5780636f1f0803146103ca576101a7565b80632e1a7d4d146102d05780632f2ff15d146102f957806332e4bb0a14610322576101a7565b806301ffc9a7146101ac57806303fe46ab146101e957806308b4cb1f1461021457806319d6a88d1461023f5780632131c68c14610268578063248a9ca314610293576101a7565b366101a757005b600080fd5b3480156101b857600080fd5b506101d360048036038101906101ce9190611c05565b610661565b6040516101e09190611c4d565b60405180910390f35b3480156101f557600080fd5b506101fe6106db565b60405161020b9190611c81565b60405180910390f35b34801561022057600080fd5b506102296106ff565b6040516102369190611cdd565b60405180910390f35b34801561024b57600080fd5b5061026660048036038101906102619190611de9565b610725565b005b34801561027457600080fd5b5061027d610951565b60405161028a9190611cdd565b60405180910390f35b34801561029f57600080fd5b506102ba60048036038101906102b59190611eaa565b610977565b6040516102c79190611c81565b60405180910390f35b3480156102dc57600080fd5b506102f760048036038101906102f29190611ed7565b610996565b005b34801561030557600080fd5b50610320600480360381019061031b9190611f30565b610a97565b005b34801561032e57600080fd5b50610337610ab8565b6040516103449190611c81565b60405180910390f35b34801561035957600080fd5b50610374600480360381019061036f9190611f70565b610adc565b005b34801561038257600080fd5b5061039d60048036038101906103989190611f30565b610bb2565b005b3480156103ab57600080fd5b506103b4610c35565b6040516103c19190611cdd565b60405180910390f35b3480156103d657600080fd5b506103df610c5b565b6040516103ec9190611fd2565b60405180910390f35b34801561040157600080fd5b5061040a610c61565b6040516104179190611fd2565b60405180910390f35b34801561042c57600080fd5b5061044760048036038101906104429190611ed7565b610c67565b60405161045b989796959493929190611fed565b60405180910390f35b34801561047057600080fd5b50610479610cdc565b6040516104869190611cdd565b60405180910390f35b6104a960048036038101906104a4919061206b565b610d02565b005b3480156104b757600080fd5b506104c06110f6565b6040516104cd9190611fd2565b60405180910390f35b3480156104e257600080fd5b506104fd60048036038101906104f89190611f30565b6110fc565b60405161050a9190611c4d565b60405180910390f35b34801561051f57600080fd5b50610528611166565b6040516105359190611c81565b60405180910390f35b34801561054a57600080fd5b5061056560048036038101906105609190611ed7565b61116d565b005b34801561057357600080fd5b5061057c6113df565b6040516105899190611fd2565b60405180910390f35b34801561059e57600080fd5b506105a76113e5565b6040516105b49190611c81565b60405180910390f35b3480156105c957600080fd5b506105e460048036038101906105df91906120ab565b611409565b005b3480156105f257600080fd5b5061060d60048036038101906106089190611f30565b6115c6565b005b34801561061b57600080fd5b50610636600480360381019061063191906120fe565b6115e7565b005b34801561064457600080fd5b5061065f600480360381019061065a91906120ab565b611639565b005b60007f7965db0b000000000000000000000000000000000000000000000000000000007bffffffffffffffffffffffffffffffffffffffffffffffffffffffff1916827bffffffffffffffffffffffffffffffffffffffffffffffffffffffff191614806106d457506106d382611661565b5b9050919050565b7f364d3d7565c7a8300c96fd53e065d19b65848d7b23b3191adcd55621c744223c81565b600560009054906101000a900473ffffffffffffffffffffffffffffffffffffffff1681565b7fb814ff4a26ea3ec5cd1fa579daad86324826254265f3acfec78303a19845b44961074f816116cb565b60006002600088815260200190815260200160002090508060070160009054906101000a900460ff166107b7576040517f08c379a00000000000000000000000000000000000000000000000000000000081526004016107ae90612188565b60405180910390fd5b8383905086869050146107ff576040517f08c379a00000000000000000000000000000000000000000000000000000000081526004016107f6906121f4565b60405180910390fd5b60005b8686905081101561090957600085858381811061082257610821612214565b5b9050602002013590508260060154811115610872576040517f08c379a00000000000000000000000000000000000000000000000000000000081526004016108699061228f565b60405180910390fd5b8083600601600082825461088691906122de565b925050819055508787838181106108a05761089f612214565b5b90506020020160208101906108b591906120fe565b73ffffffffffffffffffffffffffffffffffffffff166108fc829081150290604051600060405180830381858888f193505050501580156108fa573d6000803e3d6000fd5b50508080600101915050610802565b50867fac9fe8ad7f55eac03284399116ecafc104f10459773f4cdf47063c46e5be335a878787876040516109409493929190612450565b60405180910390a250505050505050565b600460009054906101000a900473ffffffffffffffffffffffffffffffffffffffff1681565b6000806000838152602001908152602001600020600101549050919050565b6000801b6109a3816116cb565b814710156109e6576040517f08c379a00000000000000000000000000000000000000000000000000000000081526004016109dd9061228f565b60405180910390fd5b60003373ffffffffffffffffffffffffffffffffffffffff1683604051610a0c906124bc565b60006040518083038185875af1925050503d8060008114610a49576040519150601f19603f3d011682016040523d82523d6000602084013e610a4e565b606091505b5050905080610a92576040517f08c379a0000000000000000000000000000000000000000000000000000000008152600401610a899061251d565b60405180910390fd5b505050565b610aa082610977565b610aa9816116cb565b610ab383836116df565b505050565b7fb814ff4a26ea3ec5cd1fa579daad86324826254265f3acfec78303a19845b44981565b6000801b610ae9816116cb565b83600360006101000a81548173ffffffffffffffffffffffffffffffffffffffff021916908373ffffffffffffffffffffffffffffffffffffffff16021790555082600460006101000a81548173ffffffffffffffffffffffffffffffffffffffff021916908373ffffffffffffffffffffffffffffffffffffffff16021790555081600560006101000a81548173ffffffffffffffffffffffffffffffffffffffff021916908373ffffffffffffffffffffffffffffffffffffffff16021790555050505050565b610bba6117bf565b73ffffffffffffffffffffffffffffffffffffffff168173ffffffffffffffffffffffffffffffffffffffff1614610c27576040517f08c379a0000000000000000000000000000000000000000000000000000000008152600401610c1e906125af565b60405180910390fd5b610c3182826117c7565b5050565b600360009054906101000a900473ffffffffffffffffffffffffffffffffffffffff1681565b60075481565b60015481565b60026020528060005260406000206000915090508060000154908060010160009054906101000a900473ffffffffffffffffffffffffffffffffffffffff16908060020154908060030154908060040154908060050154908060060154908060070160009054906101000a900460ff16905088565b600960009054906101000a900473ffffffffffffffffffffffffffffffffffffffff1681565b600060026000848152602001908152602001600020905080600401544210610d5f576040517f08c379a0000000000000000000000000000000000000000000000000000000008152600401610d569061261b565b60405180910390fd5b60008211610da2576040517f08c379a0000000000000000000000000000000000000000000000000000000008152600401610d9990612687565b60405180910390fd5b818160020154610db291906126a7565b3414610df3576040517f08c379a0000000000000000000000000000000000000000000000000000000008152600401610dea90612735565b60405180910390fd5b60008160010160009054906101000a900473ffffffffffffffffffffffffffffffffffffffff16905060005b83811015610e9f578173ffffffffffffffffffffffffffffffffffffffff16636a627842336040518263ffffffff1660e01b8152600401610e609190611cdd565b600060405180830381600087803b158015610e7a57600080fd5b505af1158015610e8e573d6000803e3d6000fd5b505050508080600101915050610e1f565b50600061271060065434610eb391906126a7565b610ebd9190612784565b9050600061271060075434610ed291906126a7565b610edc9190612784565b9050600061271060085434610ef191906126a7565b610efb9190612784565b9050600081838534610f0d91906122de565b610f1791906122de565b610f2191906122de565b90506000841115610f9657600360009054906101000a900473ffffffffffffffffffffffffffffffffffffffff1673ffffffffffffffffffffffffffffffffffffffff166108fc859081150290604051600060405180830381858888f19350505050158015610f94573d6000803e3d6000fd5b505b600083111561100957600460009054906101000a900473ffffffffffffffffffffffffffffffffffffffff1673ffffffffffffffffffffffffffffffffffffffff166108fc849081150290604051600060405180830381858888f19350505050158015611007573d6000803e3d6000fd5b505b600082111561107c57600560009054906101000a900473ffffffffffffffffffffffffffffffffffffffff1673ffffffffffffffffffffffffffffffffffffffff166108fc839081150290604051600060405180830381858888f1935050505015801561107a573d6000803e3d6000fd5b505b8086600601600082825461109091906127b5565b92505081905550868660050160008282546110ab91906127b5565b92505081905550877f2fe7f3fce87dc8184aed61d2307d6f46c968decd48a64b99c3d961a4c8d9b7bd33896040516110e49291906127e9565b60405180910390a25050505050505050565b60085481565b600080600084815260200190815260200160002060000160008373ffffffffffffffffffffffffffffffffffffffff1673ffffffffffffffffffffffffffffffffffffffff16815260200190815260200160002060009054906101000a900460ff16905092915050565b6000801b81565b7f364d3d7565c7a8300c96fd53e065d19b65848d7b23b3191adcd55621c744223c611197816116cb565b600060026000848152602001908152602001600020905080600401544210156111f5576040517f08c379a00000000000000000000000000000000000000000000000000000000081526004016111ec9061285e565b60405180910390fd5b8060070160009054906101000a900460ff1615611247576040517f08c379a000000000000000000000000000000000000000000000000000000000815260040161123e906128ca565b60405180910390fd5b8060030154816005015410156113905760008160050154826003015461126d91906122de565b9050600061271060085460075460065461271061128a91906122de565b61129491906122de565b61129e91906122de565b8385600201546112ae91906126a7565b6112b891906126a7565b6112c29190612784565b90506000600960009054906101000a900473ffffffffffffffffffffffffffffffffffffffff1690508073ffffffffffffffffffffffffffffffffffffffff16639dcbd8f4836040518263ffffffff1660e01b81526004016113249190611fd2565b600060405180830381600087803b15801561133e57600080fd5b505af1158015611352573d6000803e3d6000fd5b505050508184600601600082825461136a91906127b5565b925050819055508284600501600082825461138591906127b5565b925050819055505050505b60018160070160006101000a81548160ff021916908315150217905550827f1fa829e51a6b1f88670e94165b7db5ddad636b9ab19002c11700c5cac86e222e60405160405180910390a2505050565b60065481565b7f67a6408454ade468dd56d9281031b7b20fe87ed99b91259dd3487dcaeacae11a81565b7f67a6408454ade468dd56d9281031b7b20fe87ed99b91259dd3487dcaeacae11a611433816116cb565b428211611475576040517f08c379a000000000000000000000000000000000000000000000000000000000815260040161146c90612936565b60405180910390fd5b600180600082825461148791906127b5565b925050819055506000600260006001548152602001908152602001600020905060015481600001819055508481600201819055508381600301819055508281600401819055506000306001546040516114df90611b96565b6114ea9291906127e9565b604051809103906000f080158015611506573d6000803e3d6000fd5b509050808260010160006101000a81548173ffffffffffffffffffffffffffffffffffffffff021916908373ffffffffffffffffffffffffffffffffffffffff16021790555081600001547f485612bd5e812e05062edb4c687aabc65cf8e9b827fceb4a3525827a2af3ee258360010160009054906101000a900473ffffffffffffffffffffffffffffffffffffffff168460020154856003015486600401546040516115b69493929190612956565b60405180910390a2505050505050565b6115cf82610977565b6115d8816116cb565b6115e283836117c7565b505050565b6000801b6115f4816116cb565b81600960006101000a81548173ffffffffffffffffffffffffffffffffffffffff021916908373ffffffffffffffffffffffffffffffffffffffff1602179055505050565b6000801b611646816116cb565b83600681905550826007819055508160088190555050505050565b60007f01ffc9a7000000000000000000000000000000000000000000000000000000007bffffffffffffffffffffffffffffffffffffffffffffffffffffffff1916827bffffffffffffffffffffffffffffffffffffffffffffffffffffffff1916149050919050565b6116dc816116d76117bf565b6118a8565b50565b6116e982826110fc565b6117bb57600160008084815260200190815260200160002060000160008373ffffffffffffffffffffffffffffffffffffffff1673ffffffffffffffffffffffffffffffffffffffff16815260200190815260200160002060006101000a81548160ff0219169083151502179055506117606117bf565b73ffffffffffffffffffffffffffffffffffffffff168173ffffffffffffffffffffffffffffffffffffffff16837f2f8788117e7eff1d82e926ec794901d17c78024a50270940304540a733656f0d60405160405180910390a45b5050565b600033905090565b6117d182826110fc565b156118a457600080600084815260200190815260200160002060000160008373ffffffffffffffffffffffffffffffffffffffff1673ffffffffffffffffffffffffffffffffffffffff16815260200190815260200160002060006101000a81548160ff0219169083151502179055506118496117bf565b73ffffffffffffffffffffffffffffffffffffffff168173ffffffffffffffffffffffffffffffffffffffff16837ff6391f5c32d9c69d2a47ea670b442974b53935d1edc7fd64eb21e047a839171b60405160405180910390a45b5050565b6118b282826110fc565b611929576118bf8161192d565b6118cd8360001c602061195a565b6040516020016118de929190612aa4565b6040516020818303038152906040526040517f08c379a00000000000000000000000000000000000000000000000000000000081526004016119209190612b28565b60405180910390fd5b5050565b60606119538273ffffffffffffffffffffffffffffffffffffffff16601460ff1661195a565b9050919050565b60606000600283600261196d91906126a7565b61197791906127b5565b67ffffffffffffffff8111156119905761198f612b4a565b5b6040519080825280601f01601f1916602001820160405280156119c25781602001600182028036833780820191505090505b5090507f3000000000000000000000000000000000000000000000000000000000000000816000815181106119fa576119f9612214565b5b60200101907effffffffffffffffffffffffffffffffffffffffffffffffffffffffffffff1916908160001a9053507f780000000000000000000000000000000000000000000000000000000000000081600181518110611a5e57611a5d612214565b5b60200101907effffffffffffffffffffffffffffffffffffffffffffffffffffffffffffff1916908160001a90535060006001846002611a9e91906126a7565b611aa891906127b5565b90505b6001811115611b48577f3031323334353637383961626364656600000000000000000000000000000000600f861660108110611aea57611ae9612214565b5b1a60f81b828281518110611b0157611b00612214565b5b60200101907effffffffffffffffffffffffffffffffffffffffffffffffffffffffffffff1916908160001a905350600485901c945080611b4190612b79565b9050611aab565b5060008414611b8c576040517f08c379a0000000000000000000000000000000000000000000000000000000008152600401611b8390612bee565b60405180910390fd5b8091505092915050565b612c0980612c0f83390190565b600080fd5b600080fd5b60007fffffffff0000000000000000000000000000000000000000000000000000000082169050919050565b611be281611bad565b8114611bed57600080fd5b50565b600081359050611bff81611bd9565b92915050565b600060208284031215611c1b57611c1a611ba3565b5b6000611c2984828501611bf0565b91505092915050565b60008115159050919050565b611c4781611c32565b82525050565b6000602082019050611c626000830184611c3e565b92915050565b6000819050919050565b611c7b81611c68565b82525050565b6000602082019050611c966000830184611c72565b92915050565b600073ffffffffffffffffffffffffffffffffffffffff82169050919050565b6000611cc782611c9c565b9050919050565b611cd781611cbc565b82525050565b6000602082019050611cf26000830184611cce565b92915050565b6000819050919050565b611d0b81611cf8565b8114611d1657600080fd5b50565b600081359050611d2881611d02565b92915050565b600080fd5b600080fd5b600080fd5b60008083601f840112611d5357611d52611d2e565b5b8235905067ffffffffffffffff811115611d7057611d6f611d33565b5b602083019150836020820283011115611d8c57611d8b611d38565b5b9250929050565b60008083601f840112611da957611da8611d2e565b5b8235905067ffffffffffffffff811115611dc657611dc5611d33565b5b602083019150836020820283011115611de257611de1611d38565b5b9250929050565b600080600080600060608688031215611e0557611e04611ba3565b5b6000611e1388828901611d19565b955050602086013567ffffffffffffffff811115611e3457611e33611ba8565b5b611e4088828901611d3d565b9450945050604086013567ffffffffffffffff811115611e6357611e62611ba8565b5b611e6f88828901611d93565b92509250509295509295909350565b611e8781611c68565b8114611e9257600080fd5b50565b600081359050611ea481611e7e565b92915050565b600060208284031215611ec057611ebf611ba3565b5b6000611ece84828501611e95565b91505092915050565b600060208284031215611eed57611eec611ba3565b5b6000611efb84828501611d19565b91505092915050565b611f0d81611cbc565b8114611f1857600080fd5b50565b600081359050611f2a81611f04565b92915050565b60008060408385031215611f4757611f46611ba3565b5b6000611f5585828601611e95565b9250506020611f6685828601611f1b565b9150509250929050565b600080600060608486031215611f8957611f88611ba3565b5b6000611f9786828701611f1b565b9350506020611fa886828701611f1b565b9250506040611fb986828701611f1b565b9150509250925092565b611fcc81611cf8565b82525050565b6000602082019050611fe76000830184611fc3565b92915050565b600061010082019050612003600083018b611fc3565b612010602083018a611cce565b61201d6040830189611fc3565b61202a6060830188611fc3565b6120376080830187611fc3565b61204460a0830186611fc3565b61205160c0830185611fc3565b61205e60e0830184611c3e565b9998505050505050505050565b6000806040838503121561208257612081611ba3565b5b600061209085828601611d19565b92505060206120a185828601611d19565b9150509250929050565b6000806000606084860312156120c4576120c3611ba3565b5b60006120d286828701611d19565b93505060206120e386828701611d19565b92505060406120f486828701611d19565b9150509250925092565b60006020828403121561211457612113611ba3565b5b600061212284828501611f1b565b91505092915050565b600082825260208201905092915050565b7f546f75726e616d656e74206e6f7420656e646564000000000000000000000000600082015250565b600061217260148361212b565b915061217d8261213c565b602082019050919050565b600060208201905081810360008301526121a181612165565b9050919050565b7f417272617973206c656e677468206d69736d6174636800000000000000000000600082015250565b60006121de60168361212b565b91506121e9826121a8565b602082019050919050565b6000602082019050818103600083015261220d816121d1565b9050919050565b7f4e487b7100000000000000000000000000000000000000000000000000000000600052603260045260246000fd5b7f496e73756666696369656e742066756e64730000000000000000000000000000600082015250565b600061227960128361212b565b915061228482612243565b602082019050919050565b600060208201905081810360008301526122a88161226c565b9050919050565b7f4e487b7100000000000000000000000000000000000000000000000000000000600052601160045260246000fd5b60006122e982611cf8565b91506122f483611cf8565b925082820390508181111561230c5761230b6122af565b5b92915050565b600082825260208201905092915050565b6000819050919050565b61233681611cbc565b82525050565b6000612348838361232d565b60208301905092915050565b60006123636020840184611f1b565b905092915050565b6000602082019050919050565b60006123848385612312565b935061238f82612323565b8060005b858110156123c8576123a58284612354565b6123af888261233c565b97506123ba8361236b565b925050600181019050612393565b5085925050509392505050565b600082825260208201905092915050565b600080fd5b82818337505050565b600061240083856123d5565b93507f07ffffffffffffffffffffffffffffffffffffffffffffffffffffffffffffff831115612433576124326123e6565b5b6020830292506124448385846123eb565b82840190509392505050565b6000604082019050818103600083015261246b818688612378565b905081810360208301526124808184866123f4565b905095945050505050565b600081905092915050565b50565b60006124a660008361248b565b91506124b182612496565b600082019050919050565b60006124c782612499565b9150819050919050565b7f5769746864726177616c206661696c6564000000000000000000000000000000600082015250565b600061250760118361212b565b9150612512826124d1565b602082019050919050565b60006020820190508181036000830152612536816124fa565b9050919050565b7f416363657373436f6e74726f6c3a2063616e206f6e6c792072656e6f756e636560008201527f20726f6c657320666f722073656c660000000000000000000000000000000000602082015250565b6000612599602f8361212b565b91506125a48261253d565b604082019050919050565b600060208201905081810360008301526125c88161258c565b9050919050565b7f546f75726e616d656e742068617320656e646564000000000000000000000000600082015250565b600061260560148361212b565b9150612610826125cf565b602082019050919050565b60006020820190508181036000830152612634816125f8565b9050919050565b7f416d6f756e74206d7573742062652067726561746572207468616e207a65726f600082015250565b600061267160208361212b565b915061267c8261263b565b602082019050919050565b600060208201905081810360008301526126a081612664565b9050919050565b60006126b282611cf8565b91506126bd83611cf8565b92508282026126cb81611cf8565b915082820484148315176126e2576126e16122af565b5b5092915050565b7f496e636f72726563742045544820616d6f756e742073656e7400000000000000600082015250565b600061271f60198361212b565b915061272a826126e9565b602082019050919050565b6000602082019050818103600083015261274e81612712565b9050919050565b7f4e487b7100000000000000000000000000000000000000000000000000000000600052601260045260246000fd5b600061278f82611cf8565b915061279a83611cf8565b9250826127aa576127a9612755565b5b828204905092915050565b60006127c082611cf8565b91506127cb83611cf8565b92508282019050808211156127e3576127e26122af565b5b92915050565b60006040820190506127fe6000830185611cce565b61280b6020830184611fc3565b9392505050565b7f546f75726e616d656e74206e6f7420656e646564207965740000000000000000600082015250565b600061284860188361212b565b915061285382612812565b602082019050919050565b600060208201905081810360008301526128778161283b565b9050919050565b7f546f75726e616d656e7420616c726561647920656e6465640000000000000000600082015250565b60006128b460188361212b565b91506128bf8261287e565b602082019050919050565b600060208201905081810360008301526128e3816128a7565b9050919050565b7f456e642064617465206d75737420626520696e20746865206675747572650000600082015250565b6000612920601e8361212b565b915061292b826128ea565b602082019050919050565b6000602082019050818103600083015261294f81612913565b9050919050565b600060808201905061296b6000830187611cce565b6129786020830186611fc3565b6129856040830185611fc3565b6129926060830184611fc3565b95945050505050565b600081905092915050565b7f416363657373436f6e74726f6c3a206163636f756e7420000000000000000000600082015250565b60006129dc60178361299b565b91506129e7826129a6565b601782019050919050565b600081519050919050565b60005b83811015612a1b578082015181840152602081019050612a00565b60008484015250505050565b6000612a32826129f2565b612a3c818561299b565b9350612a4c8185602086016129fd565b80840191505092915050565b7f206973206d697373696e6720726f6c6520000000000000000000000000000000600082015250565b6000612a8e60118361299b565b9150612a9982612a58565b601182019050919050565b6000612aaf826129cf565b9150612abb8285612a27565b9150612ac682612a81565b9150612ad28284612a27565b91508190509392505050565b6000601f19601f8301169050919050565b6000612afa826129f2565b612b04818561212b565b9350612b148185602086016129fd565b612b1d81612ade565b840191505092915050565b60006020820190508181036000830152612b428184612aef565b905092915050565b7f4e487b7100000000000000000000000000000000000000000000000000000000600052604160045260246000fd5b6000612b8482611cf8565b915060008203612b9757612b966122af565b5b600182039050919050565b7f537472696e67733a20686578206c656e67746820696e73756666696369656e74600082015250565b6000612bd860208361212b565b9150612be382612ba2565b602082019050919050565b60006020820190508181036000830152612c0781612bcb565b905091905056fe608060405234801561001057600080fd5b50604051612c09380380612c09833981810160405281019061003291906101a8565b6040518060400160405280601181526020017f546f75726e616d656e74205469636b65740000000000000000000000000000008152506040518060400160405280600281526020017f545400000000000000000000000000000000000000000000000000000000000081525081600090816100ad919061042e565b5080600190816100bd919061042e565b50505081600660006101000a81548173ffffffffffffffffffffffffffffffffffffffff021916908373ffffffffffffffffffffffffffffffffffffffff160217905550806007819055505050610500565b600080fd5b600073ffffffffffffffffffffffffffffffffffffffff82169050919050565b600061013f82610114565b9050919050565b61014f81610134565b811461015a57600080fd5b50565b60008151905061016c81610146565b92915050565b6000819050919050565b61018581610172565b811461019057600080fd5b50565b6000815190506101a28161017c565b92915050565b600080604083850312156101bf576101be61010f565b5b60006101cd8582860161015d565b92505060206101de85828601610193565b9150509250929050565b600081519050919050565b7f4e487b7100000000000000000000000000000000000000000000000000000000600052604160045260246000fd5b7f4e487b7100000000000000000000000000000000000000000000000000000000600052602260045260246000fd5b6000600282049050600182168061026957607f821691505b60208210810361027c5761027b610222565b5b50919050565b60008190508160005260206000209050919050565b60006020601f8301049050919050565b600082821b905092915050565b6000600883026102e47fffffffffffffffffffffffffffffffffffffffffffffffffffffffffffffffff826102a7565b6102ee86836102a7565b95508019841693508086168417925050509392505050565b6000819050919050565b600061032b61032661032184610172565b610306565b610172565b9050919050565b6000819050919050565b61034583610310565b61035961035182610332565b8484546102b4565b825550505050565b600090565b61036e610361565b61037981848461033c565b505050565b5b8181101561039d57610392600082610366565b60018101905061037f565b5050565b601f8211156103e2576103b381610282565b6103bc84610297565b810160208510156103cb578190505b6103df6103d785610297565b83018261037e565b50505b505050565b600082821c905092915050565b6000610405600019846008026103e7565b1980831691505092915050565b600061041e83836103f4565b9150826002028217905092915050565b610437826101e8565b67ffffffffffffffff8111156104505761044f6101f3565b5b61045a8254610251565b6104658282856103a1565b600060209050601f8311600181146104985760008415610486578287015190505b6104908582610412565b8655506104f8565b601f1984166104a686610282565b60005b828110156104ce578489015182556001820191506020850194506020810190506104a9565b868310156104eb57848901516104e7601f8916826103f4565b8355505b6001600288020188555050505b505050505050565b6126fa8061050f6000396000f3fe608060405234801561001057600080fd5b506004361061010b5760003560e01c806370a08231116100a2578063b88d4fde11610071578063b88d4fde146102b6578063c87b56dd146102d2578063e985e9c514610302578063e9a7882414610332578063f809ab43146103505761010b565b806370a082311461022e57806395d89b411461025e57806398bdf6f51461027c578063a22cb4651461029a5761010b565b806323b872dd116100de57806323b872dd146101aa57806342842e0e146101c65780636352211e146101e25780636a627842146102125761010b565b806301ffc9a71461011057806306fdde0314610140578063081812fc1461015e578063095ea7b31461018e575b600080fd5b61012a60048036038101906101259190611927565b61036e565b604051610137919061196f565b60405180910390f35b610148610450565b6040516101559190611a1a565b60405180910390f35b61017860048036038101906101739190611a72565b6104e2565b6040516101859190611ae0565b60405180910390f35b6101a860048036038101906101a39190611b27565b610528565b005b6101c460048036038101906101bf9190611b67565b61063f565b005b6101e060048036038101906101db9190611b67565b61069f565b005b6101fc60048036038101906101f79190611a72565b6106bf565b6040516102099190611ae0565b60405180910390f35b61022c60048036038101906102279190611bba565b610745565b005b61024860048036038101906102439190611bba565b6107fe565b6040516102559190611bf6565b60405180910390f35b6102666108b5565b6040516102739190611a1a565b60405180910390f35b610284610947565b6040516102919190611bf6565b60405180910390f35b6102b460048036038101906102af9190611c3d565b61094d565b005b6102d060048036038101906102cb9190611db2565b610963565b005b6102ec60048036038101906102e79190611a72565b6109c5565b6040516102f99190611a1a565b60405180910390f35b61031c60048036038101906103179190611e35565b610a2d565b604051610329919061196f565b60405180910390f35b61033a610ac1565b6040516103479190611ae0565b60405180910390f35b610358610ae7565b6040516103659190611bf6565b60405180910390f35b60007f80ac58cd000000000000000000000000000000000000000000000000000000007bffffffffffffffffffffffffffffffffffffffffffffffffffffffff1916827bffffffffffffffffffffffffffffffffffffffffffffffffffffffff1916148061043957507f5b5e139f000000000000000000000000000000000000000000000000000000007bffffffffffffffffffffffffffffffffffffffffffffffffffffffff1916827bffffffffffffffffffffffffffffffffffffffffffffffffffffffff1916145b80610449575061044882610aed565b5b9050919050565b60606000805461045f90611ea4565b80601f016020809104026020016040519081016040528092919081815260200182805461048b90611ea4565b80156104d85780601f106104ad576101008083540402835291602001916104d8565b820191906000526020600020905b8154815290600101906020018083116104bb57829003601f168201915b5050505050905090565b60006104ed82610b57565b6004600083815260200190815260200160002060009054906101000a900473ffffffffffffffffffffffffffffffffffffffff169050919050565b6000610533826106bf565b90508073ffffffffffffffffffffffffffffffffffffffff168373ffffffffffffffffffffffffffffffffffffffff16036105a3576040517f08c379a000000000000000000000000000000000000000000000000000000000815260040161059a90611f47565b60405180910390fd5b8073ffffffffffffffffffffffffffffffffffffffff166105c2610ba2565b73ffffffffffffffffffffffffffffffffffffffff1614806105f157506105f0816105eb610ba2565b610a2d565b5b610630576040517f08c379a000000000000000000000000000000000000000000000000000000000815260040161062790611fd9565b60405180910390fd5b61063a8383610baa565b505050565b61065061064a610ba2565b82610c63565b61068f576040517f08c379a00000000000000000000000000000000000000000000000000000000081526004016106869061206b565b60405180910390fd5b61069a838383610cf8565b505050565b6106ba83838360405180602001604052806000815250610963565b505050565b6000806106cb83610ff1565b9050600073ffffffffffffffffffffffffffffffffffffffff168173ffffffffffffffffffffffffffffffffffffffff160361073c576040517f08c379a0000000000000000000000000000000000000000000000000000000008152600401610733906120d7565b60405180910390fd5b80915050919050565b600660009054906101000a900473ffffffffffffffffffffffffffffffffffffffff1673ffffffffffffffffffffffffffffffffffffffff163373ffffffffffffffffffffffffffffffffffffffff16146107d5576040517f08c379a00000000000000000000000000000000000000000000000000000000081526004016107cc90612143565b60405180910390fd5b6001600860008282546107e89190612192565b925050819055506107fb8160085461102e565b50565b60008073ffffffffffffffffffffffffffffffffffffffff168273ffffffffffffffffffffffffffffffffffffffff160361086e576040517f08c379a000000000000000000000000000000000000000000000000000000000815260040161086590612238565b60405180910390fd5b600360008373ffffffffffffffffffffffffffffffffffffffff1673ffffffffffffffffffffffffffffffffffffffff168152602001908152602001600020549050919050565b6060600180546108c490611ea4565b80601f01602080910402602001604051908101604052809291908181526020018280546108f090611ea4565b801561093d5780601f106109125761010080835404028352916020019161093d565b820191906000526020600020905b81548152906001019060200180831161092057829003601f168201915b5050505050905090565b60085481565b61095f610958610ba2565b838361104c565b5050565b61097461096e610ba2565b83610c63565b6109b3576040517f08c379a00000000000000000000000000000000000000000000000000000000081526004016109aa9061206b565b60405180910390fd5b6109bf848484846111b8565b50505050565b60606109d082610b57565b60006109da611214565b905060008151116109fa5760405180602001604052806000815250610a25565b80610a048461122b565b604051602001610a15929190612294565b6040516020818303038152906040525b915050919050565b6000600560008473ffffffffffffffffffffffffffffffffffffffff1673ffffffffffffffffffffffffffffffffffffffff16815260200190815260200160002060008373ffffffffffffffffffffffffffffffffffffffff1673ffffffffffffffffffffffffffffffffffffffff16815260200190815260200160002060009054906101000a900460ff16905092915050565b600660009054906101000a900473ffffffffffffffffffffffffffffffffffffffff1681565b60075481565b60007f01ffc9a7000000000000000000000000000000000000000000000000000000007bffffffffffffffffffffffffffffffffffffffffffffffffffffffff1916827bffffffffffffffffffffffffffffffffffffffffffffffffffffffff1916149050919050565b610b60816112f9565b610b9f576040517f08c379a0000000000000000000000000000000000000000000000000000000008152600401610b96906120d7565b60405180910390fd5b50565b600033905090565b816004600083815260200190815260200160002060006101000a81548173ffffffffffffffffffffffffffffffffffffffff021916908373ffffffffffffffffffffffffffffffffffffffff160217905550808273ffffffffffffffffffffffffffffffffffffffff16610c1d836106bf565b73ffffffffffffffffffffffffffffffffffffffff167f8c5be1e5ebec7d5bd14f71427d1e84f3dd0314c0f7b2291e5b200ac8c7c3b92560405160405180910390a45050565b600080610c6f836106bf565b90508073ffffffffffffffffffffffffffffffffffffffff168473ffffffffffffffffffffffffffffffffffffffff161480610cb15750610cb08185610a2d565b5b80610cef57508373ffffffffffffffffffffffffffffffffffffffff16610cd7846104e2565b73ffffffffffffffffffffffffffffffffffffffff16145b91505092915050565b8273ffffffffffffffffffffffffffffffffffffffff16610d18826106bf565b73ffffffffffffffffffffffffffffffffffffffff1614610d6e576040517f08c379a0000000000000000000000000000000000000000000000000000000008152600401610d659061232a565b60405180910390fd5b600073ffffffffffffffffffffffffffffffffffffffff168273ffffffffffffffffffffffffffffffffffffffff1603610ddd576040517f08c379a0000000000000000000000000000000000000000000000000000000008152600401610dd4906123bc565b60405180910390fd5b610dea838383600161133a565b8273ffffffffffffffffffffffffffffffffffffffff16610e0a826106bf565b73ffffffffffffffffffffffffffffffffffffffff1614610e60576040517f08c379a0000000000000000000000000000000000000000000000000000000008152600401610e579061232a565b60405180910390fd5b6004600082815260200190815260200160002060006101000a81549073ffffffffffffffffffffffffffffffffffffffff02191690556001600360008573ffffffffffffffffffffffffffffffffffffffff1673ffffffffffffffffffffffffffffffffffffffff168152602001908152602001600020600082825403925050819055506001600360008473ffffffffffffffffffffffffffffffffffffffff1673ffffffffffffffffffffffffffffffffffffffff16815260200190815260200160002060008282540192505081905550816002600083815260200190815260200160002060006101000a81548173ffffffffffffffffffffffffffffffffffffffff021916908373ffffffffffffffffffffffffffffffffffffffff160217905550808273ffffffffffffffffffffffffffffffffffffffff168473ffffffffffffffffffffffffffffffffffffffff167fddf252ad1be2c89b69c2b068fc378daa952ba7f163c4a11628f55a4df523b3ef60405160405180910390a4610fec8383836001611340565b505050565b60006002600083815260200190815260200160002060009054906101000a900473ffffffffffffffffffffffffffffffffffffffff169050919050565b611048828260405180602001604052806000815250611346565b5050565b8173ffffffffffffffffffffffffffffffffffffffff168373ffffffffffffffffffffffffffffffffffffffff16036110ba576040517f08c379a00000000000000000000000000000000000000000000000000000000081526004016110b190612428565b60405180910390fd5b80600560008573ffffffffffffffffffffffffffffffffffffffff1673ffffffffffffffffffffffffffffffffffffffff16815260200190815260200160002060008473ffffffffffffffffffffffffffffffffffffffff1673ffffffffffffffffffffffffffffffffffffffff16815260200190815260200160002060006101000a81548160ff0219169083151502179055508173ffffffffffffffffffffffffffffffffffffffff168373ffffffffffffffffffffffffffffffffffffffff167f17307eab39ab6107e8899845ad3d59bd9653f200f220920489ca2b5937696c31836040516111ab919061196f565b60405180910390a3505050565b6111c3848484610cf8565b6111cf848484846113a1565b61120e576040517f08c379a0000000000000000000000000000000000000000000000000000000008152600401611205906124ba565b60405180910390fd5b50505050565b606060405180602001604052806000815250905090565b60606000600161123a84611528565b01905060008167ffffffffffffffff81111561125957611258611c87565b5b6040519080825280601f01601f19166020018201604052801561128b5781602001600182028036833780820191505090505b509050600082602001820190505b6001156112ee578080600190039150507f3031323334353637383961626364656600000000000000000000000000000000600a86061a8153600a85816112e2576112e16124da565b5b04945060008503611299575b819350505050919050565b60008073ffffffffffffffffffffffffffffffffffffffff1661131b83610ff1565b73ffffffffffffffffffffffffffffffffffffffff1614159050919050565b50505050565b50505050565b611350838361167b565b61135d60008484846113a1565b61139c576040517f08c379a0000000000000000000000000000000000000000000000000000000008152600401611393906124ba565b60405180910390fd5b505050565b60006113c28473ffffffffffffffffffffffffffffffffffffffff16611898565b1561151b578373ffffffffffffffffffffffffffffffffffffffff1663150b7a026113eb610ba2565b8786866040518563ffffffff1660e01b815260040161140d949392919061255e565b6020604051808303816000875af192505050801561144957506040513d601f19601f8201168201806040525081019061144691906125bf565b60015b6114cb573d8060008114611479576040519150601f19603f3d011682016040523d82523d6000602084013e61147e565b606091505b5060008151036114c3576040517f08c379a00000000000000000000000000000000000000000000000000000000081526004016114ba906124ba565b60405180910390fd5b805181602001fd5b63150b7a0260e01b7bffffffffffffffffffffffffffffffffffffffffffffffffffffffff1916817bffffffffffffffffffffffffffffffffffffffffffffffffffffffff191614915050611520565b600190505b949350505050565b600080600090507a184f03e93ff9f4daa797ed6e38ed64bf6a1f0100000000000000008310611586577a184f03e93ff9f4daa797ed6e38ed64bf6a1f010000000000000000838161157c5761157b6124da565b5b0492506040810190505b6d04ee2d6d415b85acef810000000083106115c3576d04ee2d6d415b85acef810000000083816115b9576115b86124da565b5b0492506020810190505b662386f26fc1000083106115f257662386f26fc1000083816115e8576115e76124da565b5b0492506010810190505b6305f5e100831061161b576305f5e1008381611611576116106124da565b5b0492506008810190505b6127108310611640576127108381611636576116356124da565b5b0492506004810190505b606483106116635760648381611659576116586124da565b5b0492506002810190505b600a8310611672576001810190505b80915050919050565b600073ffffffffffffffffffffffffffffffffffffffff168273ffffffffffffffffffffffffffffffffffffffff16036116ea576040517f08c379a00000000000000000000000000000000000000000000000000000000081526004016116e190612638565b60405180910390fd5b6116f3816112f9565b15611733576040517f08c379a000000000000000000000000000000000000000000000000000000000815260040161172a906126a4565b60405180910390fd5b61174160008383600161133a565b61174a816112f9565b1561178a576040517f08c379a0000000000000000000000000000000000000000000000000000000008152600401611781906126a4565b60405180910390fd5b6001600360008473ffffffffffffffffffffffffffffffffffffffff1673ffffffffffffffffffffffffffffffffffffffff16815260200190815260200160002060008282540192505081905550816002600083815260200190815260200160002060006101000a81548173ffffffffffffffffffffffffffffffffffffffff021916908373ffffffffffffffffffffffffffffffffffffffff160217905550808273ffffffffffffffffffffffffffffffffffffffff16600073ffffffffffffffffffffffffffffffffffffffff167fddf252ad1be2c89b69c2b068fc378daa952ba7f163c4a11628f55a4df523b3ef60405160405180910390a4611894600083836001611340565b5050565b6000808273ffffffffffffffffffffffffffffffffffffffff163b119050919050565b6000604051905090565b600080fd5b600080fd5b60007fffffffff0000000000000000000000000000000000000000000000000000000082169050919050565b611904816118cf565b811461190f57600080fd5b50565b600081359050611921816118fb565b92915050565b60006020828403121561193d5761193c6118c5565b5b600061194b84828501611912565b91505092915050565b60008115159050919050565b61196981611954565b82525050565b60006020820190506119846000830184611960565b92915050565b600081519050919050565b600082825260208201905092915050565b60005b838110156119c45780820151818401526020810190506119a9565b60008484015250505050565b6000601f19601f8301169050919050565b60006119ec8261198a565b6119f68185611995565b9350611a068185602086016119a6565b611a0f816119d0565b840191505092915050565b60006020820190508181036000830152611a3481846119e1565b905092915050565b6000819050919050565b611a4f81611a3c565b8114611a5a57600080fd5b50565b600081359050611a6c81611a46565b92915050565b600060208284031215611a8857611a876118c5565b5b6000611a9684828501611a5d565b91505092915050565b600073ffffffffffffffffffffffffffffffffffffffff82169050919050565b6000611aca82611a9f565b9050919050565b611ada81611abf565b82525050565b6000602082019050611af56000830184611ad1565b92915050565b611b0481611abf565b8114611b0f57600080fd5b50565b600081359050611b2181611afb565b92915050565b60008060408385031215611b3e57611b3d6118c5565b5b6000611b4c85828601611b12565b9250506020611b5d85828601611a5d565b9150509250929050565b600080600060608486031215611b8057611b7f6118c5565b5b6000611b8e86828701611b12565b9350506020611b9f86828701611b12565b9250506040611bb086828701611a5d565b9150509250925092565b600060208284031215611bd057611bcf6118c5565b5b6000611bde84828501611b12565b91505092915050565b611bf081611a3c565b82525050565b6000602082019050611c0b6000830184611be7565b92915050565b611c1a81611954565b8114611c2557600080fd5b50565b600081359050611c3781611c11565b92915050565b60008060408385031215611c5457611c536118c5565b5b6000611c6285828601611b12565b9250506020611c7385828601611c28565b9150509250929050565b600080fd5b600080fd5b7f4e487b7100000000000000000000000000000000000000000000000000000000600052604160045260246000fd5b611cbf826119d0565b810181811067ffffffffffffffff82111715611cde57611cdd611c87565b5b80604052505050565b6000611cf16118bb565b9050611cfd8282611cb6565b919050565b600067ffffffffffffffff821115611d1d57611d1c611c87565b5b611d26826119d0565b9050602081019050919050565b82818337600083830152505050565b6000611d55611d5084611d02565b611ce7565b905082815260208101848484011115611d7157611d70611c82565b5b611d7c848285611d33565b509392505050565b600082601f830112611d9957611d98611c7d565b5b8135611da9848260208601611d42565b91505092915050565b60008060008060808587031215611dcc57611dcb6118c5565b5b6000611dda87828801611b12565b9450506020611deb87828801611b12565b9350506040611dfc87828801611a5d565b925050606085013567ffffffffffffffff811115611e1d57611e1c6118ca565b5b611e2987828801611d84565b91505092959194509250565b60008060408385031215611e4c57611e4b6118c5565b5b6000611e5a85828601611b12565b9250506020611e6b85828601611b12565b9150509250929050565b7f4e487b7100000000000000000000000000000000000000000000000000000000600052602260045260246000fd5b60006002820490506001821680611ebc57607f821691505b602082108103611ecf57611ece611e75565b5b50919050565b7f4552433732313a20617070726f76616c20746f2063757272656e74206f776e6560008201527f7200000000000000000000000000000000000000000000000000000000000000602082015250565b6000611f31602183611995565b9150611f3c82611ed5565b604082019050919050565b60006020820190508181036000830152611f6081611f24565b9050919050565b7f4552433732313a20617070726f76652063616c6c6572206973206e6f7420746f60008201527f6b656e206f776e6572206f7220617070726f76656420666f7220616c6c000000602082015250565b6000611fc3603d83611995565b9150611fce82611f67565b604082019050919050565b60006020820190508181036000830152611ff281611fb6565b9050919050565b7f4552433732313a2063616c6c6572206973206e6f7420746f6b656e206f776e6560008201527f72206f7220617070726f76656400000000000000000000000000000000000000602082015250565b6000612055602d83611995565b915061206082611ff9565b604082019050919050565b6000602082019050818103600083015261208481612048565b9050919050565b7f4552433732313a20696e76616c696420746f6b656e2049440000000000000000600082015250565b60006120c1601883611995565b91506120cc8261208b565b602082019050919050565b600060208201905081810360008301526120f0816120b4565b9050919050565b7f4f6e6c7920746f75726e616d656e74206d616e616765722063616e206d696e74600082015250565b600061212d602083611995565b9150612138826120f7565b602082019050919050565b6000602082019050818103600083015261215c81612120565b9050919050565b7f4e487b7100000000000000000000000000000000000000000000000000000000600052601160045260246000fd5b600061219d82611a3c565b91506121a883611a3c565b92508282019050808211156121c0576121bf612163565b5b92915050565b7f4552433732313a2061646472657373207a65726f206973206e6f74206120766160008201527f6c6964206f776e65720000000000000000000000000000000000000000000000602082015250565b6000612222602983611995565b915061222d826121c6565b604082019050919050565b6000602082019050818103600083015261225181612215565b9050919050565b600081905092915050565b600061226e8261198a565b6122788185612258565b93506122888185602086016119a6565b80840191505092915050565b60006122a08285612263565b91506122ac8284612263565b91508190509392505050565b7f4552433732313a207472616e736665722066726f6d20696e636f72726563742060008201527f6f776e6572000000000000000000000000000000000000000000000000000000602082015250565b6000612314602583611995565b915061231f826122b8565b604082019050919050565b6000602082019050818103600083015261234381612307565b9050919050565b7f4552433732313a207472616e7366657220746f20746865207a65726f2061646460008201527f7265737300000000000000000000000000000000000000000000000000000000602082015250565b60006123a6602483611995565b91506123b18261234a565b604082019050919050565b600060208201905081810360008301526123d581612399565b9050919050565b7f4552433732313a20617070726f766520746f2063616c6c657200000000000000600082015250565b6000612412601983611995565b915061241d826123dc565b602082019050919050565b6000602082019050818103600083015261244181612405565b9050919050565b7f4552433732313a207472616e7366657220746f206e6f6e20455243373231526560008201527f63656976657220696d706c656d656e7465720000000000000000000000000000602082015250565b60006124a4603283611995565b91506124af82612448565b604082019050919050565b600060208201905081810360008301526124d381612497565b9050919050565b7f4e487b7100000000000000000000000000000000000000000000000000000000600052601260045260246000fd5b600081519050919050565b600082825260208201905092915050565b600061253082612509565b61253a8185612514565b935061254a8185602086016119a6565b612553816119d0565b840191505092915050565b60006080820190506125736000830187611ad1565b6125806020830186611ad1565b61258d6040830185611be7565b818103606083015261259f8184612525565b905095945050505050565b6000815190506125b9816118fb565b92915050565b6000602082840312156125d5576125d46118c5565b5b60006125e3848285016125aa565b91505092915050565b7f4552433732313a206d696e7420746f20746865207a65726f2061646472657373600082015250565b6000612622602083611995565b915061262d826125ec565b602082019050919050565b6000602082019050818103600083015261265181612615565b9050919050565b7f4552433732313a20746f6b656e20616c7265616479206d696e74656400000000600082015250565b600061268e601c83611995565b915061269982612658565b602082019050919050565b600060208201905081810360008301526126bd81612681565b905091905056fea2646970667358221220f9c5e17f2bf3a2b9494d66479127a2cb0c7893ef7fe179c7f546a1664215221a64736f6c634300081b0033a2646970667358221220389a2ddced338fa90e9067cd1bd705eddd5724317dab6cdeede0a68230827fc664736f6c634300081b0033",
  "linkReferences": {},
  "deployedLinkReferences": {}
}